:020000022000DC
:106000000000042079630200616302006363020000
:10601000656302006763020069630200000000001C
:106020000000000000000000000000006B630200A0
:106030006D630200000000006F63020071630200E4
:10604000393E050073630200F942050073630200E4
:10605000736302007363020055410500736302001D
:1060600073630200736302007363020073630200D0
:1060700073630200C143050073630200736302008F
:1060800073630200C972020073630200736302004B
:106090006573020073630200F571050059C00500C5
:1060A0007363020073630200C1450500736302005D
:1060B000614805007363020000000000000000005A
:1060C0007363020073630200736302007363020070
:1060D000F1B1050073630200736302007363020091
:1060E0007363020073630200736302000000000028
:1060F00000000000736302000000000073630200F0
:10610000000000000000000000000000000000008F
:10611000000000000000000000000000000000007F
:10612000000000000000000000000000000000006F
:10613000000000000000000000000000000000005F
:10614000000000000000000000000000000000004F
:10615000000000000000000000000000000000003F
:10616000000000000000000000000000000000002F
:10617000000000000000000000000000000000001F
:10618000000000000000000000000000000000000F
:1061900000000000000000000000000000000000FF
:1061A00000000000000000000000000000000000EF
:1061B00000000000000000000000000000000000DF
:1061C00000000000000000000000000000000000CF
:1061D00000000000000000000000000000000000BF
:1061E00000000000000000000000000000000000AF
:1061F000000000000000000000000000000000009F
:10620000364937480A1A02D0072291438D4635494C
:1062100035480A1A06D00722914381F309880222E1
:1062200082F3148831483249324A00F045F8324846
:106230003249334A00F040F832483349334A00F0DB
:106240003BF833483349344A00F036F83348344990
:10625000344A00F031F834483449354A00F02CF81B
:1062600034483549354A00F027F835483549002289
:1062700000F02DF834483549002200F028F8344861
:106280003449091A082903DB002202600430016046
:10629000314A90471F482049884205D0026804309F
:1062A00003B4904703BCF7E700208646EC46002085
:1062B00000212A4A9047FEE7884207D0521A05D0AB
:1062C000037801300B700131013AF9D170478842EF
:1062D00002D002700130FAE770470000000004208D
:1062E00000E003200000042000000420084906000C
:1062F000542B0020EB300020D8630200D86302004A
:106300004C11060008490600542B0020542B002095
:106310007013060070130600701306007013060059
:106320007013060070130600701306007013060049
:1063300006490600A04E0600EC300020EC3000209C
:10634000EC3000209AA400209CA400209CA40020F3
:106350009CA400209CA40020A163020075570500A6
:10636000FEE7FEE7FEE7FEE7FEE7FEE7FEE7FEE705
:10637000FEE7FEE7704700BF1048804710484FF027
:106380000701884385460F4880470F48016841F45C
:1063900070010160BFF34F8FBFF36F8FFFF730BF06
:1063A0000A480B490B4A884207D0521A05D0037895
:1063B00001300B700131013AF9D170477563020069
:1063C000000004202D6C050088ED00E0B4120600EA
:0863D000982A0020542B002044
:1063D800F0B595B01C46164608460D4602F0AEF8D4
:1063E8001A9B0D93CDE9086400242346082205A9C9
:1063F80028460A948DF82C400C9402F0BDF8079BAF
:106408000293BDF81830ADF80C30BDF81A30ADF86D
:106418000E309DF814308DF8114003F00302012A64
:106428001DD1BDF81440059EC3F3C203C4F3831401
:106438008DF81030A20008230EA9284602F09CF817
:10644800C6F3952608AB0093224602AB0EA9304648
:1064580000F07EFC284602F075F815B0F0BD022A5F
:10646800F8D1BDF81640C3F3C203A4098DF8103063
:106478000827082C264628BF08263B4632460EA980
:10648800284602F079F8A41B08AB02AA31460EA8E8
:10649800374400F0C1FC002CEBD1DBE708B500F075
:1064A8004AFD0421034800F0B9FB034B01225A714D
:1064B80008BD00BFA4120600542B0020037813F077
:1064C800040216D003F00303012B03D0022B09D0DA
:1064D800012070470A6800880232C0F38310024422
:1064E8000A60F5E70B684288023303EB92130B60EE
:1064F800EEE71046704700002DE9F04F89B00546D9
:10650800861C08A8484C019200230F4600F8113D4C
:1065180001F010F923683B60D4E901231344226891
:1065280001339B1A04F21C4704F5836A04F21448E9
:10653800B3421AD3019A0023002A6DD0012262F3D4
:10654800010343F0040365F389132168A2689DF8E9
:106558000F000A4003320E4444F82230266001F04E
:106568000DF9012009B0BDE8F08F0121384601F08E
:106578001AFA504601F030FA404601F02DFA0DF1B2
:1065880020096068D4F808B049F8100D00EA0B003B
:10659800033004EB80004946FFF790FF049BB0B935
:1065A8000BEA030204EB8202D16805919A1C0133BD
:1065B80003EA0B0B04EB8B0C01F00303012B049291
:1065C800DCF80CB020D0022B04D083460BE00BEA99
:1065D8000300DDE7BDF816309B0903334FEA1B4B78
:1065E80002EB93030493404601F0F9F908B1049BC8
:1065F80063605946384601F0D6F9D4E901231344BB
:10660800226801339B1A93E7BDF81430C3F3831350
:106618004FEA1B4B1344E5E7022262F3010343F000
:10662800040365F39F5390E7BC31002030B50A4B53
:106638000A4A0B49D21AD20800239A4201D10520EE
:1066480006E031F823500468A54202D10360002017
:1066580030BD0133F1E700BFFC110600A4120600AB
:10666800AC2A00202DE9F84F224B2348FF229A60DC
:106678000022C3F81824C3E90022C3F8142483F8BD
:10668800202401F014FF804688B91C481C4E1D4D7B
:10669800DFF874A002F04DF8AD1BED084446AC429B
:1066A80008D10023184919481A469C421BD1404674
:1066B800BDE8F88F4FF000094F4606EBC40BBC420B
:1066C8000AD0142256F83710DBF8000031F044F9EC
:1066D8000028C8BF09F101090137BD42EFD12AF8E6
:1066E80024900134DBE701EB830540F823206A801E
:1066F8000133DAE7BC310020E411060080130600FC
:10670800FC110600A4120600AC2A0020002B002071
:1067180007B5019031B9019A064B53F8320003B01E
:106728005DF804FB01A8FFF781FF0028F3D00020E3
:10673800F5E700BFFC110600094B013903EBC00067
:10674800032909D8DFE801F00A020406042070478B
:1067580000797047407970470020704702207047E1
:10676800FC11060030B5124C00EB400054F82150E3
:106778008240072303FA00F06A4002400D4B6A404A
:10678800C2F3821044F8212003EB8101C2F3C20353
:10679800834238BF0346C2F34220834202F0070215
:1067A80038BF03469A4238BF1A464A8030BD00BFF8
:1067B800002B0020AC2A0020034BD3E90030C31A79
:1067C80058425841704700BFBC3100202DE9F04FB6
:1067D80087B0FFF7F1FF0646002840F01B818E4D79
:1067E800C5F81804BFF34F8F6868AC6806AF47F860
:1067F800100D2040033005EB80003946FFF75EFEA0
:10680800029B18B1D5F81824002A66D004EA0302BE
:10681800991C013305EB8202234005EB8303D26800
:10682800DB68049302F00303022B0392029169D1FF
:10683800BDF80E3079489DF80C604FEA931ABAF10A
:10684800500FD14628BF4FF0500969F38F1309F153
:106858000801ADF80E3001F042FEC6F3C2068046CC
:10686800002800F0BE8001F069FE03A90023082279
:10687800404601F076FE029924EA01070137BF007D
:10688800B94538D95FFA89F997B3FFB2A9EB070977
:10689800214003315FFA89FBB946614F05EB81015D
:1068A80008234A46404601F05CFE37B109F1080367
:1068B8005A463946404601F054FE029B0AF1030A43
:1068C80003EB9A030293D5F81834002B50D1D5F86E
:1068D8001044DFF8609107276FE02A689A4204D8CD
:1068E8006A60304607B0BDE8F08F04EA030081E72C
:1068F8004B49BB46D4E72140033108234A4605EB00
:106908008101D7E7012B6CD1BDF80C604348C6F371
:106918008311062928BF062161F3891602318900EF
:10692800ADF80C6001F0DBFDC6F3C2068046002816
:1069380057D001F003FE0023082203A9404601F0C6
:1069480010FE0027BDF80C20C2F38312BB1C97422F
:106958004FEA8303B7D202994A1C214003310292BD
:1069680005EB81010422404601F0FBFD0137E9E710
:10697800404601F0E7FDFFF71FFF80F00100C6B2B7
:10698800AFE7E3685A79B2B11B79BDF8101003EB91
:10699800430259F8211007FA02F3052E03EA01030E
:1069A80023FA02F308BF0326B34204D323684146FF
:1069B8001B6820469847E3681C68002CE1D14046D4
:1069C80001F0C0FD06A800F8114D00F0B3FED5F89F
:1069D80018340BB9029B6B609DF8070000F0CEFEDF
:1069E800C9E7D5F8104474B90E4B5B88012BC2D99E
:1069F8000D4B0E480E49C01AC008000440F00200B2
:106A080000F072F8B7E7236820469B689847E36868
:106A18001C68E8E7002664E7BC310020E4110600A2
:106A2800C8310020CC2A0020FC1106003C120600C8
:106A38008C130600002B00202DE9F74F284C8046C8
:106A48000F46924601A9012218469B46D4F80890A1
:106A5800FFF752FD88B3019D0026A91C5E4506EB91
:106A6800010234D100211F4800F067FF80F31000B5
:106A78006A1C02EA090204EB8202000405EA09031F
:106A8800033340EA1840D06014F8232068F3C502A5
:106A980004F8232034F8232066F3891224F82320ED
:106AA80054F82320012167F39F2244F8232061F33F
:106AB80001026FF3820204F8232094F820341BB1FA
:106AC800FFF784FE0028FBD103B0BDE8F08F09EA88
:106AD800020204EB82025AF82630D3600136BDE781
:106AE800BC310020D835002000231A46FFF7A4BF88
:106AF80013B502AC012344F8042D2246FFF79CFF8E
:106B080002B010BD07B5CDE9002302236A46FFF79E
:106B180093FF03B05DF804FB1FB5CDE90123069B85
:106B2800039301AA0323FFF787FF05B05DF804FB71
:106B38001FB5CDE90023069B0293079B03936A4682
:106B48000423FFF779FF05B05DF804FB2DE9F3474F
:106B58008046304CD01C8A46174601A9002280087E
:106B6800A568FFF7C9FC002840D0DDF80490A668A6
:106B780009F10200019001362840361AB6000330A8
:106B8800B74204EB80003BD83A46514630F004FF48
:106B98000021214800F0D1FE80F3100009F1010323
:106BA8002B4004EB83034FEA184242EA0040D860C6
:106BB80005EA0903033304EB830214F8231068F38E
:106BC800C50104F8231034F823106FF38F1124F84B
:106BD8002310518867F38F11518014F82320022164
:106BE80061F301026FF3820204F8232094F8203441
:106BF8001BB1FFF7EBFD0028FBD102B0BDE8F08721
:106C08003246514630F0C8FEBA1B0AEB060104F1C1
:106C18000C00BBE7BC310020D83500201C4A2DE908
:106C2800F843D2F81034064688460024194681B93C
:106C3800F1680C719BB9C2F810640B60154F164DC2
:106C4800ED1BED084FF00009A9450DD12046BDE820
:106C5800F883C9680879A04214D00968E7E7DB68B7
:106C68001A680A601E60E9E707EBC9034946DA7942
:106C7800F368424528BF42461879FFF773FD09F1CA
:106C88000109E1E701340A2CD0D14FF0FF34DDE7E8
:106C9800BC310020FC110600A4120600037A052B63
:106CA80010B50C460FD0437A23B1084A084920464C
:106CB80000F0F6FE0749204600F0F2FE2046BDE847
:106CC800104000F0E2BE002AF8D0F3E7E713060010
:106CD800EC1306000C140600C38873B504460D4671
:106CE80033B1144A00921449144A284600F0D8FED9
:106CF800217A05291CD0637A4BB1A088FFF71CFDC7
:106D08000F4B104953F82020284600F0C9FE227A7C
:106D18000D4BA08853F822600021FFF7F9FC0B49BE
:106D280003463246284602B0BDE8704000F0B8BEBF
:106D380002B070BDE7130600F7130600EF13060054
:106D4800B4130600EC1306001C1406000F1406000A
:106D58002DE9F04385B01F460C9D002306460C46DE
:106D6800904695F80C902B7329463846FFF7B4FFE8
:106D7800B8F1060F09D8DFE808F00412181F283305
:106D880040003146284600F08BFE0022294638464E
:106D9800FFF784FF85F80C9005B0BDE8F083226802
:106DA8003146284600F07CFEEFE7D4E9002331465F
:106DB800284600F075FEE8E7A36800933146D4E959
:106DC8000023284600F06CFEDFE7E3680193A36820
:106DD80000933146D4E90023284600F061FED4E749
:106DE80023690293E3680193A36800933146D4E9C9
:106DF8000023284600F054FEC7E76369039323691C
:106E08000293E3680193A36800933146D4E9002311
:106E1800284600F045FEB8E708292DE9F84F8046D6
:106E28000E4617461C4636D8002593F80C901D735D
:106E380019461046FFF750FFDFF87CA0DFF87CB05A
:106E4800AE422AD918F805205946204600F028FEF7
:106E58000135082DF4D11649DFF864B0204600F05A
:106E68001FFE0025AE421DD918F805A0504630F087
:106E780005FD002814BF52462E225946204600F030
:106E88000FFE0135082DEDD1012221463846FFF7C6
:106E980005FF84F80C90BDE8F88F5146204600F0B5
:106EA800FFFDD5E70349204600F0FAFDE9E700BFFA
:106EB800E2130600E0130600DE130600D8130600EE
:106EC800E41306007047000007B5044B0093044A1A
:106ED8004023FFF77DFA03B05DF804FBED6E020076
:106EE800793600202DE9F84389461446B2B10F4B94
:106EF8000F4E0325002743F00108224609EB07013E
:106F0800002030F099FB0744241A48B933782BB194
:106F18004FF47A40C047013D02D13570BDE8F8838F
:106F280001233370002CE8D1F8E700BF8014060075
:106F380078360020704730F0B3BB00002DE9F04FE1
:106F48003B4F89B000263B4B1B78F5B2AB4202D8C9
:106F580009B0BDE8F08F384B196811F835000124E5
:106F6800A0F12002C0F1200304FA02F924FA03F385
:106F780049EA0309D7E9002304FA00F8CDE9042314
:106F880002EA080203EA0903134301EBC50B4CD0DC
:106F9800DDE9042322EA080223EA0903C7E90023FA
:106FA80007912DF0C3F80799844611F83500A0F130
:106FB8002002C0F1200324FA03F304FA02F21A4370
:106FC80004FA00F300931D4B0192DDE90045D3E973
:106FD800002314401D4022462B465FFA8CF40025FE
:106FE800CDE90445049CA0F12005AC400394049C21
:106FF800C0F1200124FA01F1039C0C430499039485
:1070080081400291DDE90245AB4208BFA2420CD1A2
:107018009BF801104B1E59425941A1EB0C02DBF8B9
:1070280004305142514103B1984701368BE700BF04
:10703800E8360020B9360020F0360020E03600207F
:107048002DE9F84F0646244800F064FB002841D19A
:107058000123A6F12001C6F1200203FA01FB23FA5D
:1070680002F203FA06FA1D4BD3E900014BEA020BC0
:1070780000EA0A0801EA0B0958EA09021F4623D167
:1070880030462DF053F8164BB8B1D3E9000140EA69
:107098000A0441EA0B05C3E90045D7E900234BEA96
:1070A8000305104B0C4819684AEA0204C7E9004571
:1070B8000022BDE8F84F00F0E9BAD3E9000120EA60
:1070C8000A0421EA0B05E6E720EA0A0421EA0B058F
:1070D800C3E90045BDE8F88FC0360020E836002037
:1070E800E0360020BC360020042A2DE9F34105468D
:1070F8000C4616463AD92CF03FFFD8B11C4B1D4917
:107108001D601D4BDFF884801C701C4B00221E6024
:107118000023C1E900231A49C1E90023013CE4B274
:1071280000260327FF2C0CD1164A1748002100F02F
:107138009BFA03E02CF0E8FE0028DFD002B0BDE89F
:10714800F08123B205EBC30201A992788DF80520DE
:1071580015F833008DF8066042468DF804702CF05F
:1071680015FF013CE4B20028DCD0E7E70720E5E79B
:10717800F0360020E0360020B9360020BC3600206A
:10718800E8360020456F020094140600497002009A
:1071980070B5084D084E00242B789C4201D300207E
:1071A80070BD3368012113F834002CF075FF0134E9
:1071B800F2E700BFB9360020F03600201FB50021E5
:1071C800039001AA44F20100CDE9011126F08AFBDF
:1071D80005B05DF804FB00B583B002900091019200
:1071E80044F2010071466A4626F07CFB03B000BDFC
:1071F800094A537891780133DBB2994208BF0023DA
:10720800117899421FBF03705078182303FB0020A0
:1072180014BF043000207047F436002073B50546CB
:1072280002A8002400F8014D0E4600F083FA0DF183
:107238000600FFF7DDFF90B106700A4B9DF80620A7
:1072480045605A709DF8070000F098FA24B9064B7B
:107258004FF48012C3F80021204602B070BD042408
:10726800F0E700BFF436002000E100E0024B4FF4E5
:107278003C6043F001031847A014060038B50C4BD6
:107288000C4C4FF40032C3F8802001254FF48033B2
:10729800C4F84833C4F808336560FFF7E7FF064BC6
:1072A800A56000241C60FFF7E1FF044B1C7038BD8B
:1072B80000E100E0001001401038002001380020F3
:1072C800F8B51F4B1F491B680025C1F84051C1F88C
:1072D8004451C1F84851C1F84C51C1F80051C1F8A6
:1072E80004514BB3D1F8044517490968641A24F0CE
:1072F8007F442F461A68A24209D8A41A15441A7C5A
:10730800DE691AB11F74D3E905209047AEB90F4B57
:107318000F4A197813788B4205D10133DBB2022B5F
:1073280008BF0023137012780A4B43F822500A4B07
:107338004FF48012C3F80021F8BD3346DAE700BFE6
:107348001438002000100140103800200C380020AC
:107358000D3800200438002000E100E02DE9F74F47
:107368009E4A9F49137809789E4D99423CD0013333
:10737800DBB2022B08BF002313709B4912789B4B8A
:107388000F6853F822003B1823F07F4300220B605C
:107398002B6816461446944613B942B12B6006E092
:1073A800196881420ED902B12B60091A19604FF091
:1073B80001082B68DFF83CA200930027BEB9DFF86C
:1073C8003CB260E0401A0C44D968C3F800C0D3F856
:1073D8001CE031B13A1922F07F42C3E90121DE6194
:1073E8001E4601227346D7E70026B046E1E7344639
:1073F800F6697D4A63681268DFF804C2A068991AC2
:1074080021F07F41614500F2A580014421600122FD
:1074180022742A680023C4E90133E361002A40F09A
:10742800A2802C60CAE75A1C9BF80210D2B2914283
:107438008BF8002004BF00228BF80020182202FBE2
:1074480003B32A6819799C68022974D003297ED06D
:10745800012918D1217CB1B9DA6862601A69A26081
:107468005A699B69A361624BE2601B78002BC0D00C
:107478006160BEE79C4200F093809946DB69002B6F
:10748800F8D1002323749BF800309BF801209A421E
:10749800C9D12B682FB9009A934202D1B8F1000FD5
:1074A80043D0002B79D0D3F800A0524D4E4BD5F8DD
:1074B80004751C68DFF84C813E1B98F8003026F0F4
:1074C8007F4603369BB94FF48033C5F84433C5F87B
:1074D8000433494B4FF400324FF00109C3F88021BF
:1074E8001A60C5F80090FFF7C1FE88F80090B24511
:1074F8002CBF5444A41924F07F44C5F84045D5F85E
:107508000435DB1B23F07F43E41B033324F07F4463
:10751800A3420AD9D5F80435C5F84035FFF7A6FEC9
:10752800354B4FF40032C3F80021314B00221A705A
:1075380003B0BDE8F08F13469146A0E71174D269F5
:107548000123002AFAD1002B9DD02A609BE7002353
:107558001946F6E7D31A23F07F43834234BFC31A90
:107568000023236053E721681368994213D8591AF6
:107578001160E26155E7091AD8691A4638B103461D
:1075880018688842F7D3401A1860184613462160D5
:10759800E061DC6112E71346F2E7FFF76FFEC4E72C
:1075A8004C450DD1D3692B6053B90F480192012185
:1075B800CAF8081003600E4B1970FFF757FE019ABE
:1075C800E1692368C9F81C1011B1086803440B600D
:1075D8002B689A4218BF012753E700BF0C380020D8
:1075E8000D380020143800201038002004380020FE
:1075F800003800200010014000E100E0F4360020CF
:10760800FEFF7F000138002008B5FFF737FE104B5A
:1076180000200B2218809A700E4B18600E4B1870C1
:107628000E4B18700E4B4FF48012C021C3F8802106
:1076380083F814131A6002F18042A2F56F22C2F88F
:10764800080583F81113074BD2F804251A6008BD02
:10765800F4360020143800200C3800200D380020A3
:1076680000E100E010380020074B9B784BB132B1A5
:1076780028B10368187C20B959745A6170470720EB
:1076880070470820704700BFF43600202DE9F74303
:107698001D4FBB7805460E4690469BB390B3042910
:1076A8002ED9436973B3437C02A80024012B00F848
:1076B800014D0CBF8946A14600F03CF80DF10600CB
:1076C800FFF796FDD0B101230370104B4560D3F846
:1076D8000435C0E90498C0E902369DF806307B708D
:1076E8009DF8070000F04AF824B9094B4FF48012BE
:1076F800C3F80021204603B0BDE8F0830424EFE777
:107708000724F7E70824F5E7F436002000100140C5
:1077180000E100E0064A92783AB130B1426922B1FC
:10772800002202740221FFF779BD0820704700BFCC
:10773800F436002070B5EFF3108672B60C4A9468E0
:1077480001239CB993600B4B0B4DD3F88010294053
:107758001160C3F88050D3F8841051604FF0FF32A5
:10776800C3F88420047006B962B670BD0370FAE7E6
:107778001838002000E100E0FC06FFBD084B9A68BD
:1077880010B55AB150B9EFF3108172B6054A1C68AA
:1077980014605C685460986001B962B610BD00BF9F
:1077A8001838002000E100E090B22DF0E7BE10B5D7
:1077B80061B1B2FBF3F403FB1424A4B244B9C0E9E9
:1077C800001484608281C381204610BD0E20FCE72E
:1077D8000920FAE782B050E8022FC188B2EB324F95
:1077E8004FF0000317BF92B241EA014142EA01415A
:1077F80004E04268B2EB324F08BF012340E80212AE
:10780800002AE8D18DF807309DF80730002B0CBF0F
:107818001120002002B0704737B550E8013F9DB2F3
:10782800C48925448489A54228BF2D1B0489A54203
:1078380002BFBFF32F8F002207E0C5EA030540E827
:107848000154002CE9D14FF001028DF80320019377
:10785800019B9DF803200B6002F0FF0322B10B8807
:107868000068184403B030BD1846FBE70A884B8807
:107878009A4209D150E8012FC2EA024240E80123A6
:10788800002BF7D1012070470020704737B550E82A
:10789800023F1FFAA3F5C488A54202BFBFF32F8F8A
:1078A80000220DE0C48925448489A54228BF2D1BE8
:1078B800C3EA054540E80254002CE8D14FF0010224
:1078C8008DF803200193019B9DF803200B6002F0C3
:1078D800FF0322B14B880068184403B030BD184636
:1078E800FBE70A884B889A4209D150E8022FC2EA7E
:1078F800224240E80223002BF7D1012070470020E4
:10790800704701F01F024B090121914000EB8300F1
:1079180000F028B801F01F0301229A404B0900EB40
:107928008300D14300F034B84B0901F01F0150F82F
:107938002300C84000F00100704750E8002F0B46B4
:1079480040E8003C9CF0000FF7D11046704750E823
:10795800002F42EA010340E8003C9CF0000FF6D1FA
:107968001046704750E8003F43EA010240E8002C07
:107978009CF0000FF6D11046704750E8002F02EA3D
:10798800010340E8003C9CF0000FF6D11046704718
:1079980050E8003F03EA010240E8002C9CF0000F89
:1079A800F6D11046704750E8003F03EB010240E86B
:1079B800002C9CF0000FF6D11046704750E8003FAD
:1079C800A3EB010240E8002C9CF0000FF6D1104612
:1079D80070470121FFF7BBBF0121FFF7C3BF00219B
:1079E800FFF7CBBF10B590B1D0E9012301689B1A0E
:1079F800DBB20A60013BDBB2FF2B026802D1002038
:107A0800107110BD11684C1C14600B70F2E70E2049
:107A1800F7E737B5054602A8002400F8014DFFF73F
:107A280089FE2A686B68116899420ED9481E106051
:107A380011F8014CEB68A98A01FB0434AB68117991
:107A48001B1ADBB2994238BF13719DF80700FFF784
:107A580095FE204603B030BD37B5054602A8002381
:107A680000F8013D0C46FFF765FE2A681368591CAB
:107A78001160E968641AA98AB4FBF1F41C709DF8D6
:107A88000700FFF77BFE03B030BD826810B50446DF
:107A98002AB143690168006998470023A36010BDB3
:107AA8000EB403B5039929B102AA04AB42F8043D08
:107AB80000F06AF802B05DF804EB03B07047826822
:107AC80030B40468551C8560A154D0E901329A424B
:107AD80002D330BCFFF7D9BF30BC70472DE9F84F4F
:107AE8009946DDE90A431746824688460A46012632
:107AF800BA420FD24E4538BF4E4613F0010B01D1A2
:107B080064B900240125B9F1010F1AD909F1FF3927
:107B18007D43F8E7B2FBF7F20136E9E79B070ED59C
:107B2800B9F1000F0CBF30252025A642EAD2013C4E
:107B380029465046FFF7C3FF002CF6D1E1E7202580
:107B4800F3E7B8FBF5F39F42E2D9DFF83890B8FBCA
:107B5800F5F3504619F8031005FB1388FFF7AFFF3C
:107B6800B5FBF7F5002DF2D1BBF1000F02D00CB137
:107B7800A64201D3BDE8F88F20215046013CFFF70B
:107B88009EFFF4E7A61406002DE9F74F0546904638
:107B98000E46002900F03A8116F8011B002958D03A
:107BA800252940F0D180002702E047F0010716465A
:107BB800324612F8013B2D2BF7D0302B04D02B2B5B
:107BC80005D147F00407F2E747F00207EFE7002482
:107BD8002A2B06F101021BD1D8F80030191D1B68A9
:107BE800C8F800101C44164633782E2B1CD10136D9
:107BF8004FF0000A314611F8012BA2F13000092894
:107C080014D80A2303FB0A23A3F1300A0E46F1E72E
:107C180012F8013CA3F130010929E5D80A2101FB3A
:107C28000434303C1646D3E74FF0000A324612F8C7
:107C3800011B01F0FB0068281646F8D0692916D008
:107C480054D8582970D00ED825297DD03378002BE8
:107C5800A2D12B7B002B00F0D980284603B0BDE8C9
:107C6800F04FFFF712BF632968D06429EED1D8F826
:107C78000020D2F80090111D89EAE972C8F80010B6
:107C8800A2EBE9724FF0010B092A61DCD34538BF3A
:107C9800D3462CB1B9F1000F01DB790700D5013CBF
:107CA800BA0702D5BAF1000F04D0FB0702D4002CA2
:107CB80054D10024B9F1000F58DAC9F100092D2177
:107CC8002846FFF7FCFE07F00302022A05D1BAF1A5
:107CD800000F02D1002C4DD10024CDE900475346B6
:107CE8000A2249462846FFF7F9FEAFE7732954D020
:107CF80016D87029AAD1D8F800301A1DC8F8002063
:107D0800302128461C68FFF7DAFE78212846FFF75D
:107D1800D6FE00220823CDE9003221461022E1E7F1
:107D280075292FD0782991D1D8F800100A1DC8F8E4
:107D38000020CDE90047534610222CE0D8F8003047
:107D48001A1D1978C8F800202846FFF7B8FE7DE705
:107D58000A230BF1010B92FBF3F295E7A345A9D295
:107D680020212846013CFFF7AAFEA0E77807AAD5FC
:107D78002B21A5E7A345B0D230212846013CFFF7C7
:107D88009EFEA7E7D8F80010CDE900470A1DC8F8FD
:107D9800002053460A220968A4E7D8F800301A1DC3
:107DA800C8F80020F907D3F8009012D54F46A7EB82
:107DB800090B17F8011B41B9A345BFF447AF2021B0
:107DC8002846013CFFF77BFEF6E72846FFF777FEDB
:107DD800EDE7B9F1000F17D048462FF05BFE0746D4
:107DE800BC4200D954B909F1FF3919F8011F00291B
:107DF8003FF42CAF2846FFF762FEF6E7202128461D
:107E0800013CFFF75CFEEBE74F46E9E703B0BDE84E
:107E1800F08F000007B50B46A0B9154B5B886BB116
:107E2800144B1548154AC01A0E23C0080093144B6A
:107E38000004144940F00100FEF76EFE0E2003B066
:107E48005DF804FB6BB90A4B5B88002BF6D0094B35
:107E580009480D4AC01AC0080E2300930004084BB5
:107E6800E7E703601B68114603B05DF804EB1847A9
:107E7800E42A0020FC1106006C12060063150600B7
:107E8800B614060068150600DF1506002DE9F34153
:107E98009646B0B9504B5B88002B00F095804F4B4D
:107EA8004F48504AC01AC0080E244F4B0094000493
:107EB8004E4940F00100FEF72FFE204602B0BDE813
:107EC800F0816AB9444B5B88002B7DD0434B444812
:107ED800474AC01AC0080E2400040094424BE7E742
:107EE800D0F800C0BCF1000F0DD13B4B5B88002BD4
:107EF8006CD03A4B3A483F4AC01AC00808240004DC
:107F08000094394BD4E76BB9334B5B88002B5FD0B7
:107F1800324B3348384AC01AC00809240004009478
:107F2800314BC5E74768D7F80480B3FBF8F708FB7F
:107F380017376FB1284B5B88002B49D0274B28484F
:107F48002E4AC01AC008092400040094264BAFE743
:107F58008F070DD0204B5B88002B3BD01F4B204850
:107F6800274AC01AC0081024000400941E4B9FE73B
:107F780012F0030F0CD0184B5B885BB3174B1848F3
:107F8800204AC01AC008102400040094164B8FE73A
:107F9800C768B9420BD34C1E05691C44AC4206D8CD
:107FA800DCF80C40A44602B0BDE8F04160470A4B3B
:107FB8005B887BB1094B0A48134AC01AC0081024D1
:107FC80000040094084B73E70E2476E7082474E74E
:107FD800092472E7102470E7E42A0020FC11060047
:107FE8006C12060063150600C81406006815060022
:107FF800E5150600D915060098150600EB150600CC
:10800800151606002D16060050160600F7B5A0B97D
:10801800374B5B88002B63D0364B3748374AC01A3A
:10802800C0080E24364B00940004364940F0010085
:10803800FEF772FD204603B0F0BDD0F800C0BCF1D9
:10804800000F0DD12A4B5B88002B4BD0294B2A48B7
:108058002D4AC01AC008082400040094284BE4E7FD
:108068006AB9234B5B88002B3ED0224B2248274A13
:10807800C01AC008092400040094214BD5E74768BA
:10808800D7F800E00EF1FF370F420CD0184B5B8891
:1080980063B3184B18481E4AC01AC00810240004BD
:1080A8000094174BC1E7C768B9420CD34C1E056949
:1080B8000EFB0244AC4206D8DCF81040A44603B0DC
:1080C800BDE8F04060470A4B5B887BB1094B0A4822
:1080D800104AC01AC008102400040094084BA4E7F2
:1080E8000E24A7E70824A5E70924A3E71024A1E79D
:1080F800E42A0020FC1106006C1206006315060035
:10810800DB14060068150600D91506009815060048
:10811800EE1406001415060029DF704728DF7047A3
:1081280070B503689D6886B004460E466DB114228A
:10813800002168462FF059FCA3680593237901961E
:108148002BB1012B0DD06846A84706B070BD01239E
:108158008DF8003023690293E368039363690493FD
:10816800F1E702238DF80030E3681B030293F5E77B
:108178000846704700207047024B187A003018BF35
:1081880001207047B0380020034B187A0122B0FA5A
:1081980080F05A7440097047B038002008B510467E
:1081A8001A462FF0F9FB002008BD000008B514227C
:1081B800002104482FF019FC0348FFF70BFB0020AF
:1081C80008BD00BFB03800205C2B002010B5094C5A
:1081D800094B43602046FFF7FCFB40B92EF0ECFF4B
:1081E8001C2320748C2205490548FFF7E0FA00207B
:1081F80010BD00BFB03800208416060024380020C7
:108208005C2B002070B5244D244E2B7A2C463BB9AC
:1082180023492448FFF73AFB306008B9686070BD0D
:108228000223237233681A7972B1012A24D01846BE
:108238000321FFF775FF002323726360184919486B
:10824800BDE87040FFF74DBBD3E90520121AB2F51F
:10825800805F28BF4FF48052D3E903159208012AA2
:10826800014438BF01222844FFF756FF50B11128B6
:10827800DDD101232372D2E7D3E903021044FFF7CB
:108288004DFFF3E7237C002BC9D10146BDE87040C0
:10829800022000F009B800BFB0380020C83800201C
:1082A800C43800205C2B002038B5831E012B45D82C
:1082B800234C237A002B41D0022B09D1032830D03C
:1082C800204B1B680022E2601A793AB1012A22D0B9
:1082D800637C7BBBBDE83840FFF794BFD3E9051248
:1082E8008D1AB5F5805F94BF521902F580529A61D4
:1082F8009142EDD102284FF0000308BF19462372BE
:10830800104B18BF0D211868FFF70AFF0E490F48D8
:10831800FFF7E7FADCE71A6901321A615B699A42EA
:10832800E7E7E3680133082B01D8E360D0E70023CF
:10833800E360DFE7BDE838402EF02EBF38BD00BF50
:10834800B0380020C8380020C43800205C2B00203A
:1083580000F0FD03012B08D1044B00225A74421E81
:10836800504250411874FFF74DBF7047B038002095
:1083780010B5064C201DFFF72CFB28B9637C1BB9F0
:10838800BDE81040FFF73EBF10BD00BFB038002069
:108398002DE9F34180460D460F4801A916461F46B0
:1083A800FFF73AFA0446A8B11C2200212FF01DFB62
:1083B8002D0B0123237101A9C4F80080A760E56093
:1083C80066610548FFF752FAFFF7D2FF002002B0B6
:1083D800BDE8F0810420FAE75C2B00202DE9F74383
:1083E80081468846104801A917461E46FFF714FA29
:1083F8000446B0B11C2200212FF0F7FA00250A9B91
:10840800A36001A92571C4F80090C4E903786661E6
:108418000548FFF72BFAFFF7ABFF284603B0BDE886
:10842800F0830420FAE700BF5C2B00202DE9F04719
:10843800B0F806904479D2F800A09DF8208009FB96
:1084480004F4043C06460AEB0300A0420F4688BF2A
:10845800A4EB030A191DC2F800A0B1FBF9F509FB4A
:1084680015114DB9A9EB0104544528BF5446BAF17A
:10847800000F04D1BDE8F0873668013DF1E704310B
:108488007B1970182246B8F1000F0ED00146184625
:10849800AAEB040A2FF080FAD145254436684C46E9
:1084A8004FF0000128BF5446E1E71946F0E7FFF70F
:1084B80099BAF8B546790146721E054600239342DB
:1084C8002D6803D30024A64202D8F8BD0133F6E78D
:1084D8000F682846FFF7C0FA01343946F3E72DE95B
:1084E800F843868ACD1C0746FFF793FA043E3544C5
:1084F8000446B5FBF6F5F0B14FF48073EDB2838016
:10850800C680013D076081464FF00008A84512D299
:108518003846FFF77EFA064648B16379013363713E
:1085280008F10108C9F8000007608146EEE7204617
:10853800FFF7BFFF34462046BDE8F8830121043029
:10854800FFF731BA10B5012104460430FFF736FAB7
:1085580010F0FF0F04D12046BDE81040FFF7A9BF77
:1085680010BD1FB504AC44F8042D00220092224629
:10857800FFF75CFF04B010BD1FB504AC44F8042D30
:10858800012200922246FFF751FF04B010BD026895
:1085980013685268934291BFD01A806801308018DE
:1085A80088BFC01A70472DE9F84303681D685C68E6
:1085B800A54284BF836801331746884694BF641B6D
:1085C8005C1BC2684168BC42064605FB02110CD31D
:1085D8007A4340462FF0E0F9B3683D449D4288BF96
:1085E800002533681D60BDE8F88304FB02F94A469C
:1085F80040462FF0D1F9F26871683C1B624308EBE2
:1086080009002FF0C9F933681C60ECE7036881683A
:108618001A685B688B4234BF01330023D31A58426F
:1086280058417047F7B5044602A8002300F8013DF9
:108638000D46FFF77FF82046FFF7E8FF10B1237CCF
:10864800002B3CD12268A66853685168B14234BFF8
:1086580001310021516030B11168A068814234BFF6
:10866800013100211160E2686068511E072920D895
:10867800DFE801F004101F141F1F1F182A78C254C6
:108688002046FFF784FF23689A68824200D29860E8
:10869800002415E02A8820F81320F1E72A6840F81A
:1086A8002320EDE7D5E9006700EBC300C0E90067C8
:1086B800E6E7294602FB03002FF06EF9E0E7042401
:1086C8009DF80700FFF75AF8204603B0F0BDF7B54C
:1086D80006460F46144600259AB102A800F8015D27
:1086E800FFF728F83046FFF752FFA0420CD3224686
:1086F80039463046FFF757FF2C469DF80700FFF72D
:108708003DF8204603B0F0BD0524F6E713B504464E
:1087180002A8002300F8013DFFF70CF82046FFF7F8
:1087280036FF04469DF80700FFF728F8204602B0F8
:1087380010BD836800225A609A60C3E90422DA6097
:108748001A6070470B684A684360934208BF002369
:10875800016008BF43607047436843B1026891688D
:1087680052680B449342436004BF00234360704740
:108778000D4930B5A1F594720225914201D8002027
:108788000EE08B1ADB1093FBF5F302EBC30452F8EF
:108798003330834205D802D204F10802EDE760685D
:1087A80030BD2146E9E700BFFC17060008B5FFF712
:1087B800DFFF024B002808BF184608BDBE1606009A
:1087C8000D4930B5A1F50E720225914201D800205D
:1087D8000EE08B1ADB1093FBF5F302EBC30452F89F
:1087E8003330834205DC02DA04F10802EDE7606801
:1087F80030BD2146E9E700BF4423060008B5FFF76E
:10880800DFFF024B002808BF184608BDAA1B060058
:1088180041DF704746DF7047082807D801238340A7
:1088280040F2F112134201D033F094B8704708B502
:1088380000F098FA00F098F800202BF023FA10B115
:1088480000F0E8F8FCE708BD08B500F0E3F8FCE73D
:1088580062B6704772B6704713B502AC002304F8CD
:10886800053D01939DF80330032B08D904210DEB36
:1088780001002BF045FA30B9019802B010BD20462E
:108888002BF02CFAEEE70020F7E708B50AF0F6FB24
:108898004FF47053584308BD034A431A934288BFA4
:1088A8000B1A1846704700BFFEFFFF7F10B504463D
:1088B800FFF7EBFF0444FFF7E8FFA04204D9FFF7F6
:1088C800E4FFA042FBD810BDFFF7DFFFA042FBD3B7
:1088D800F9E730B50D468DB01446A2B199B190B103
:1088E8000146102268462FF057F8102229460DEB52
:1088F80002002FF051F86846FFF78CFF102208A9F4
:1089080020462FF049F80DB030BDEFF30580003058
:1089180018BF0120704700004FF08053F7B51C6E58
:10892800596E002545EA0102074D04F0FF070024AF
:10893800224347EA050302A961E9022308222FF02E
:108948002BF803B0F0BD00BF000E010B08B500F016
:108958001BFF437B33B1FDF739FF18B9BDE8084069
:10896800FFF756BF08BD000008B506F0FFFB48B981
:10897800054B1B7813B9054B1B781BB1BDE80840A4
:1089880006F0FABB08BD00BF9C2B0020A02B0020DE
:108998002DE9F84307460E4606F0E8FB58B1184C97
:1089A800184BDFF86890DFF86880E41AE4082404BC
:1089B80044F003040EB9BDE8F883D9F80000C0F10B
:1089C8000805B542A8BF35462A46394640442EF028
:1089D800E3FFD9F800202A44082AC9F800202F44C8
:1089E800A6EB0506E6D1084B5B88022B03D9414666
:1089F8002046FEF7ABF80023C9F80030DAE700BFDD
:108A08009C120600FC110600FC2A0020D438002025
:108A1800CC38002010B50C4C226882B10B4B5B8817
:108A2800022B0AD90A480B4B0B49C01AC00800048C
:108A380092B240F00300FEF789F800232360BDE8F6
:108A48001040FDF7C3BE00BFD4380020FC2A002028
:108A58009C120600FC110600CC3800204FF01023B1
:108A680058694FF08053411C1A695B6908BF03FBC2
:108A780002F070470378022B01D806F08BBB7047D1
:108A880010B5FFF7EBFF0A4C2061FFF7E7FF094B32
:108A98000949A0F54040E06000222046C3F80821BB
:108AA800FFF7B8F918B1BDE81040FFF7CDBE10BD0B
:108AB800982A0020D8380020901606004FF48040ED
:108AC80070470220704708B513460A4631B143B1D2
:108AD800014618462EF060FF002008BD6FF00A001E
:108AE800FBE76FF00B00F8E70128F8B507460C46DE
:108AF80016461D4612D80B44B3F5804F11D29AB1D1
:108B0800ADB1FFF7ABFFA4F5404101EB873101445C
:108B18002A4630462EF040FF0020F8BD6FF038009E
:108B2800FBE76FF01600F8E76FF00B00F5E76FF062
:108B38000C00F2E70128F7B507460C4616461D4615
:108B480026D80B44B3F5804F25D23AB3AB0828D0CA
:108B5800FFF784FFA4F5404404EB8734044406F08F
:108B680021FB07460028FAD106F00CFB21460097A6
:108B78002B4632460C48FFF789F9044606F012FBEB
:108B88000028FBD1201C18BF0120404203B0F0BDD3
:108B98006FF03800FAE76FF01600F7E76FF00B0098
:108BA800F4E76FF00C00F1E7982A002001282DE97E
:108BB800F041064626D8FFF751FF00EB8630A0F5B6
:108BC8004044DFF84C8004F5804706F0EBFA054690
:108BD8000028FAD106F0D6FA2B4601222146404653
:108BE800FFF714FA88B906F0DDFA05460028FAD12D
:108BF80004F58054BC42E8D1304606F0DBFA28463A
:108C0800BDE8F0816FF03800FAE74FF0FF30F7E782
:108C1800982A002010B5084CD4F8083153B19BB2FB
:108C28002246D4F8041194F80001FFF783FF0023CB
:108C3800C4F8083110BD00BFD83800202DE9F8432A
:108C48001C4C1E46D4F8083181460F4690466BB13D
:108C580094F80021824207D1D4F804211A449142A1
:108C680002D1B3F5807F01D1FFF7D4FFD4F8080112
:108C780018B984F80091C4F80471C0F58075B5423C
:108C880034BFADB235464DB12A46414620442EF098
:108C980083FED4F808312B44C4F80831761BB6B2E9
:108CA80016B93046BDE8F883FFF7B4FF2F44A8444F
:108CB800DCE700BFD838002007B50C4B18680090D7
:108CC800FFF7CCFE0422A0F580410DEB02002EF048
:108CD80063FE042269460DEB02002EF0D4FDB0FAC3
:108CE80080F0400903B05DF804FB00BF4A2306008A
:108CF80070B506460D461446FFF7B0FEA4F57F543E
:108D08003C3C324629462044BDE87040FFF7DBBEB4
:108D18000048704750230600042203210270817026
:108D2800002206214270C17042607047B0F5A27FF0
:108D380001D106F041BA704708B5FFF7E9FF2BF0FB
:108D4800CDFBFFF7E5FF2BF0D5FB024B00221A7095
:108D580008BD00BFE4390020014B1878704700BFF8
:108D6800E43900201FB502A8FFF7D6FFFFF7D0FFB0
:108D7800104A02A92BF036FB08B1FFF765FDFFF793
:108D8800C7FF0368D3F81045FFF7C2FFE2B24FF4FC
:108D98007031012421FA02F20223214600942BF0BB
:108DA800F4FBFFF7B5FF2BF08BFB034B1C7004B0F3
:108DB80010BD00BF358D0200E439002008B5084B0E
:108DC8001B780BB9FFF7CEFFFFF7A2FF2BF0B8FB1C
:108DD80028B9FFF79DFFBDE808402BF071BB08BD1F
:108DE800E43900202DE9F0418A78CB78002A07463B
:108DF8000D460CBF0824102403B108342E780EB198
:108E08000E34042695F80180B8F1000F56D0E1B26F
:108E1800384605F04FFD0222002104462EF0E5FDFC
:108E28006A782378002A6CD043F009032370EB7822
:108E380094F90110002BAB7814BF08220022002BF4
:108E480042EA010214BF102300231343DBB2344A61
:108E5800637092F8D810022905D192F8B71111B1B0
:108E680043F0200363702B783BB1637843F002032F
:108E78006370FB7843F00203FB70AB88A380EB8838
:108E880063800123A37192F8CE30E37192F8CE305B
:108E9800013382F8CE30AA78EB78AAB30822CBB394
:108EA800A918A0182EF078FD082205F1100104F188
:108EB80010002EF071FD2046BDE8F081394640F2E1
:108EC800471005F0A3FEA3190B3318447F2809D9CE
:108ED800AB7813B185F80280083CEB7813B1002316
:108EE800EB70083C394640F2471005F08FFE0B3610
:108EF800264406447F2E10D8E1B2384605F014FD0A
:108F080089E743F0080391E7002BD4D00822A91879
:108F1800A018CEE705F11001FAE70024CBE700BF5F
:108F28009486002013B54FF4B76240F24711044607
:108F380005F044FE032105F067FD0D4B93F81A2256
:108F4800E92A11D0F02A11D0E12A0DD00270B3F825
:108F58001B32A0F80130002300931A462146054829
:108F680009F0FAFB02B010BD0922EFE70622EDE78F
:108F7800948600205D7B0300F0B585B004AE4FF603
:108F8800FE7340F6676240F2471126F8023D074635
:108F980005F014FE0D2105F08DFC00255323022257
:108FA800044603704570827031460B302EF0F4FC95
:108FB800054BC4F803302A4600952B46394603482A
:108FC80009F0CAFB05B0F0BDD98F020055DF0400D7
:108FD80013B540F6756240F24711044605F0EEFD00
:108FE8000C2105F067FC462303700122002343701F
:108FF8008270C372C3700371437183711A46009300
:109008002146024809F0A8FB02B010BD55DF040054
:109018002DE9F04FDFF8E0936FF41577002609EBA0
:10902800070A85B00546B34657464FEACB08A8EB72
:109038000B03534403F512735A7B12F0010464D0F6
:1090480099F80210FF295DD09B7B03F003035B01B5
:1090580053EAD20305D140F2B63140F2471005F089
:10906800DFFD99F80260D7F8E03206EB06161E44D9
:109078000DF10E00B17904F099FDA8EB0B033B4408
:1090880003F51273587B9B7B03F003035B0140F2EB
:10909800BD3243EAD00040F2471105F08FFD01468A
:1090A80040F2471005F0ADFDBDF80E3082889A42B7
:1090B80008D097F898315C0726D0737803F01C0322
:1090C800142B21D1A8EB0B08B8444FF4737298F80D
:1090D800563298F8550203F003035B0143EAD000C7
:1090E80040F2471105F06AFD014640F2471005F0CD
:1090F80088FD99F802104088013102F0B1FC002681
:1091080089F80200002400E04C460BF1010BBBF18A
:10911800100F43D009F10709002C86D0002D77D114
:10912800B14B97F8C9201B685B08023B9A4203D2EF
:1091380097F8C820934254D80023009340F247126E
:1091480040F2EE3301214FF0FF3009F011FF237890
:10915800012262F342032370FF23A37009F00CF984
:1091680043F6FF73B0FBF3F39BB2627810335B08EE
:1091780063F387022378627013F0060F05D140F27B
:109188000B4140F2471005F04BFD2378C3F3410231
:10919800033262F342032370002653E00023002CBD
:1091A800BCD1C3EBC302B91801F51271487BC007E3
:1091B80005D5897B890804BF02F25524E4190133D7
:1091C800102BECD1002CA9D1002D00F0FE8040F22C
:1091D800834240F24711284605F0F0FC05F0B8FA42
:1091E800F3E005F027FA044628B94FF47E7140F2FF
:1091F800471005F015FD204605F02AFA00230093D4
:109208001A460146794809F0A7FA05B0BDE8F08F7B
:10921800002EA3D06378207803F003035B0140F2AB
:10922800054243EAD00040F2471105F0C7FC014669
:1092380040F2471005F0E5FCA1784088013102F0C2
:109248000FFCA0706378207803F003035B0143EA06
:10925800D00040F2144240F2471105F0AFFC01463D
:1092680040F2471005F0CDFC037803F00303012B0F
:1092780052D06378207803F003035B0140F2214267
:1092880043EAD00040F2471105F098FC014640F24D
:10929800471005F0B6FC40884FF6FC73C01A18BF9B
:1092A800012002F0C1FC524B196807318046C908F9
:1092B800D4F8030005F018F98146A378FF2B47D1AD
:1092C800207810F0060F2BD16378227803F003037F
:1092D8005B0153EAD20305D140F2464140F2471000
:1092E80005F09EFC45B140F24C4240F24711284639
:1092F80005F064FC05F02CFA6578237805F0030581
:109308006D0145EAD3056FF30003237097F8C53262
:10931800013B87F8C5321BE04FF00008C146CCE797
:10932800B8F1000F14D0002E58D1637803F003036E
:109338005B0143EAD00040F2424240F2471105F097
:109348003DFCC378C3F38013A8EB0308C145BBD029
:1093580040F2534240F24711284605F02FFC804660
:109368006078237800F00300400140EAD30085428A
:109378000FD040F2574240F2471105F01FFC01465A
:10938800404605F031FC1521404605F03DFBFF2322
:10939800037586B11521404605F036FBB1790546BF
:1093A8000DF10E0004F002FCBDF80E302B81AB7CF1
:1093B80043F00503AB74404605F04AF90023014623
:1093C80000931A460B4809F0C7F997F8C5220023FD
:1093D80032B12CB100931A46194613E70023B3E7BC
:1093E80087F8C63211E700BF8C2B002019900200C5
:1093F800882B0020C1D10400E988002073B5CEB2C3
:10940800044628B94FF4D66140F2471005F008FC2D
:1094180040F2B36240F24711204605F0CFFB40F21C
:10942800B362054640F24711304605F0C7FB0146D6
:10943800284605F0D9FB40F2B96240F247112046B0
:1094480005F0BCFBC378002543F01003C3702A461F
:109458002B46314600950C4809F07EF94FF4D86246
:1094680040F24711204605F0A9FB072105F0CCFA88
:10947800FF2383712A4600952B462146034809F0AD
:109488006BF902B070BD00BFD5AF0200399D020074
:1094980037B504460DF1070300220121808804F046
:1094A800FBFD88B90B4B9DF8071003F130021878C3
:1094B800C00706D59878884203D15D78E07985425F
:1094C80005D003339342F2D1012003B030BD002010
:1094D800FBE700BFB8880020F7B514460F4640F6F2
:1094E800314240F24711054605F068FB092105F0B5
:1094F8008BFAFF2C06460DD1082200212EF075FAB2
:10950800002337721A4600932946044809F024F9C3
:1095180003B0F0BD214604F007FBF1E7217D03000D
:1095280010B5064C94F8042394F80513FFF7D4FFFC
:1095380094F80403BDE8104004F00CBC94860020A5
:1095480073B5002206460DF107030121808804F057
:10955800A3FD58BB1C4900EB40020A4402F5067300
:1095680092F8245215F001051DD191F854020130EA
:10957800C4B281F8544292F8241241F0010182F8F1
:1095880024129DF8071082F82612F17982F8251224
:1095980092F82422092161F34702012C1A7307D09B
:1095A800012002B070BD01301028D4D10020F8E7A6
:1095B8002A46FF21054809F019FB4122294603489C
:1095C80009F044F9ECE700BF948600206196020098
:1095D800F7B51E4C94F8C532002B35D01C4F00252A
:1095E8000126EA00531B234403F51273597BC9076C
:1095F8001AD5997B880818BF3F30A2EB050218BF1F
:1096080060F38701224418BF997392F856329B0879
:109618000AD194F8C6323BB900931A46194638461F
:1096280084F8C66209F098F80135102DD9D10022C6
:109638001146084809F0DAFA06480222002103B068
:10964800BDE8F04009F002B903B0F0BD94860020EF
:1096580019900200D995020070B4154890F8541278
:1096680019B30026344604EB4402024402F506729C
:10967800137BDD070DD55D0819BF7F3565F34703FB
:1096880065F3000301F1FF3111BF13731373C9B2FE
:1096980001260134102CE6D10EB180F85412412273
:1096A8000021044870BC09F0D1B870BC704700BFF5
:1096B800948600206196020070B5294C2023A4F8F6
:1096C800CC30022384F8CF3094F897310F2284F8F5
:1096D800322184F8952103F0EF030322FF2643F09B
:1096E8000B03002184F8962104F23710102284F825
:1096F800973184F894612EF078F994F8983184F8C9
:10970800CC61002565F3C71384F898314FF6FF73D1
:10971800A4F82C31A4F8C031A4F8C23184F8CD31B2
:1097280094F8973184F8475165F3820384F89731A8
:109738000820012384F8B63184F81F5208F0FEFA95
:109748001C22294604F5CD702EF04FF984F8B75144
:10975800A4F8745184F8D95084F8D16170BD00BF61
:109768009486002008B5FFF7A7FF01F06BFE26F0EE
:1097780041FA044B93F820236FF3000283F8202367
:1097880008BD00BF94860020004870475488002018
:1097980030B587B005469DF828308DF800309DF823
:1097A8002C308DF8013000238DF802308DF803300D
:1097B8001C4BADF80410084693F897111446C906D7
:1097C8009DF83020ADF8064000D522B3B3F8C0317B
:1097D800834208D10822144904A82EF0DDF8012399
:1097E8008DF8023004E004A904F080FC0028F6D0CB
:1097F8004FF6F7739C420ED802A9204604F076FC77
:1098080048B9082209490DEB02002EF03CF810B1C6
:1098180001238DF8033069462846FFF7E3FA07B0BD
:1098280030BD00BF948600205888002078290600A3
:10983800013210B50C46D1B205F096F800F8014B8C
:1098480010BD0000F8B5144F00253E46EC00631B20
:109858003B4403F512735A7BD10716D5987B00F069
:109868000300400150EAD20007D040F2CF4240F254
:10987800471105F0A3F904F06BFF641B344494F816
:1098880055326FF3000384F855320135102DDDD1C0
:10989800002386F8C532F8BD9486002013B5164B10
:1098A80093F8B023D20704460DD493F8D021072AA1
:1098B80009D093F8AE23402A01D0012A10D193F899
:1098C800AF33012B0CD1002011F0B2FE012300931D
:1098D80000231A462146094808F03EFF02B010BD91
:1098E8004FF4E96240F24711204605F067F902B0EB
:1098F800BDE8104004F02CBF9486002061AE020041
:1099080037B560B3174B93F8D922824227D100228A
:1099180083F8D922D3F8D522916801B3106810448E
:109928000139047B9160D3F8D5520F4A296812682F
:1099380001315208B1FBF2F002FB10122A6083F8E1
:10994800D9422CB940F25C7140F2471005F068F931
:10995800002300931A462146044808F0FDFE03B090
:1099680030BD00BF948600208C2B0020397604007F
:10997800F0B5104A92F85432DBB10026314601EBBB
:109988004105154405F5067795F8244214F0010FB2
:1099980009D095F82652854205D16FF30004013BA2
:1099A8003C73DBB2012601311029E8D10EB182F8EF
:1099B8005432F0BD9486002037B5014605460DF1B6
:1099C800060004F0F3F8BDF806202E4C4FF6FF739E
:1099D8009A4217D0B4F8C01191424AD12A48ADF83A
:1099E8000630A4F8C03104F0AEFE94F8B033DB07BB
:1099F80002D5284604F0AEF91CF0F2F9BDF80600CD
:109A08001EF02AF894F8D3220023934217D204EBCD
:109A1800830191F8C912A94232D1013AD2B29342D4
:109A280084F8D3220BD203F1AE00800000F11301B9
:109A3800D21A0F309200214420442DF05AFF2846B4
:109A480001F096FD284604F023F905F087FF0B2066
:109A580007F034F80C2007F031F80F2007F02EF843
:109A6800132007F02BF805F083FF08F0CDF903B0B9
:109A780030BD284613F0DCFA28461BF013FFBDE77B
:109A88000133C2E794860020818F02002DE9F0415E
:109A980040F6BF4286B00F4640F24711804605F0B7
:109AA8008DF88A4C02970823009340F2471240F63B
:109AB800C14301210646CDF804804FF0FF3009F07C
:109AC80057FA94F8A8378248002565F341032A46D7
:109AD800FE2184F8A83784F8B75109F087F894F87C
:109AE800DC3284F8065365F304134FF6FF7084F8EC
:109AF800DC3284F8545284F8C55284F8D3521DF0ED
:109B0800ABFF002F40F0A88094F8E435B4F8C0010A
:109B180067F3820384F8E4353A460DF117033946B2
:109B280004F0BAFA18B99DF81700FFF745FF0822A4
:109B3800002168482DF059FF0822674967482DF031
:109B4800A2FEB0B10822664964482DF09CFE80B19F
:109B580000220DF117031146604804F067FB18B99D
:109B68009DF8170004F0F6F8082200215B482DF054
:109B78003CFF94F8D101FF2801D0FFF71DFF94F8AE
:109B8800B0336FF3000384F8B03312F09DFA1EF07F
:109B98001BFB1EF0E5FA1FF0B5FE40460EF0A0F8DC
:109BA8008EE0D4F8E03200EB00101844022243782B
:109BB80062F38403437094F8D10104F0CBF865E0B4
:109BC800102228462DF011FF012006F077FFD4F867
:109BD8003C1800293AD00120884708223D492846E8
:109BE8002DF0DAFE94F8D830012B02BF2B7B43F01E
:109BF8000E032B7394F8CD311BB12B7B43F00C0370
:109C08002B7302236B73D4F82833AB600523AB7333
:109C180094F8A837B4F8C00143F00103002284F88F
:109C2800A83711460DF1170304F036FA18B99DF854
:109C3800170004F08FF8304604F00AFD00230146AF
:109C480000931A46274808F087FD39E001231A4691
:109C5800254804F00BFDC0E71021304604F0D4FE7F
:109C680094F8B033DB07054613D594F8D101FF28E3
:109C78000FD094F8D830022B93D101F079FC28B199
:109C880040F6DF4140F2471004F0CAFFFF2384F892
:109C9800D13194F8B03394F8A4136FF3000311F0A2
:109CA800010184F8B0338BD0304604F051FD94F8AC
:109CB800D333022043F0010384F8D3331FF0D2FBDF
:109CC800FF2384F8D13106B0BDE8F08194860020E6
:109CD800611F05006487002080290600C8890020CC
:109CE80078290600611C050081700300437813F091
:109CF800020FC3F3C002C3F3001314BF16200820D9
:109D0800134400EBC3007047427812F0100F0CBFE9
:109D180008231023110748BF0833510742BF991C75
:109D2800C35C01EB4303920748BF0E33D8B27047B8
:109D38002DE9F04F89B040F2E74240F24711029016
:109D480004F03CFF0146074640F2471004F059FF73
:109D580007218146384604F057FE029B90F806B06A
:109D68002BB94FF49E6140F2471004F059FFFB787D
:109D7800DA0703D50021384604F02CFCCE4D95F8BF
:109D8800D830012B9EBF99F8013023F0200389F8C1
:109D98000130394640F2471004F033FF002495F8AB
:109DA800D8300794B0F802E0ADF81AE0022B8046EC
:109DB80040F0FF8095F8D031072B05D095F8D111E8
:109DC8000DF11A0003F0F2FEA046264699F800307D
:109DD80003F00303012B40F0D081394640F24710CD
:109DE80004F00FFF82464846FFF78EFF1AF800A0DE
:109DF800002E40F0E181B9F802204FF6F7739A423D
:109E080020D907AB32460121B9F8040004F044F91F
:109E1800C0B9AA4B9DF81C1003F130021878C60788
:109E280007D59878884204D15E7899F80700864269
:109E380008D003339342F1D14846FFF781FB00284D
:109E480000F0BD811521384604F0DEFDC27CB5F86E
:109E5800C0310380022161F34612BDF81A30C27482
:109E6800827C038161F346124FF6FF715B1A18BFBB
:109E7800012343EA8808134668F304038374B5F89A
:109E8800C23103824FF0000880F814B03946A7F8B1
:109E9800048040F2471004F0B4FE42884FF6F7738E
:109EA8009A42064640F27B8195F8D830022B00F0A2
:109EB800768195F8C5120F2900F281814346C3EBDC
:109EC800C3042A1902F51272507BC00700F15881A9
:109ED800537B04F25524013143F001032C4485F8E7
:109EE800C512537395F8C532012B09D100221146CA
:109EF800734808F07BFE02220021714808F0A6FC96
:109F08002CB940F2465140F2471004F089FE029BFA
:109F1800029AD4F8030003F01F01237803F0070323
:109F280043EAC103022767F34203C2F341122370D5
:109F38006270002104222DF058FD6378207803F028
:109F480003035B0140F24E5243EAD00040F247114E
:109F580004F034FE014640F2471004F052FE00219E
:109F6800408801F07DFDBAF1010FA07040F00E812C
:109F7800B37995F83221B3EB420F237814BF67F316
:109F8800420343F00603237004220021D4F803009F
:109F98002DF02BFD95F8C63243B90122494885F8C2
:109FA800C62200931A46194608F0D6FB09B0BDE848
:109FB800F08F4FF6F7739E4504D94FF6FF73ADF84F
:109FC8001A3001E74678C6F38006002E46D0FFF720
:109FD8008DFE08EB000618F8003096F801A00AF18B
:109FE800FF307070B11CBAF1000F2FD198F8030040
:109FF80098F80220059342EA0022ADF81A2098F852
:10A0080001205C0022F004020B1988F80120404668
:10A018000393FFF779FE3946049040F2471004F0A5
:10A02800F0FD049A0399C4F19204A8EB0000A21A67
:10A03800121A30462DF05DFC059B591C490001F0B1
:10A04800FE01384604F0D1FC0024BDE601EB4001D6
:10A0580002220DF11A002DF09FFCB5E60DF119034F
:10A0680032463146704604F017F868BB07AA00214B
:10A078009DF8190001F09EFA002834D00021B8F8A4
:10A08800020025F027FE98F80020C2F3411204468A
:10A09800002A5ED000284FD0037813F0060301D0C1
:10A0A800062B29D1A1780DF11A0003F07FFD237842
:10A0B8006FF342032370C7E794860020B888002016
:10A0C800D99502001990020098F801301B07D5D5E0
:10A0D8000DF119033246314608F1080004F0A6F8DC
:10A0E8000028C3D0CAE7079B93F8018088F00208CC
:10A0F800C8F34008044668E6022B2AD1384604F023
:10A10800A7FA594625F016FE064698BBB8F802008D
:10A1180025F0FAFD20B14288B5F8C0319A4206D040
:10A128000023B8F802101A46184625F0D1FF00247B
:10A13800A0466FF0030649E6384604F089FA594606
:10A1480025F0F8FD0646B0B903460246B8F80210F5
:10A15800EBE704240192009440F2933340F2471253
:10A1680001214FF0FF3008F003FF4FF000084FF0D7
:10A17800FF362BE60024A04628E64FF0000A37E613
:10A188000133102B7FF49BAE0024ABE6BAF1080F25
:10A198007FF4FAAE2378012262F34203F3E63846ED
:10A1A80004F056FA0023014600931A461948FBE6C4
:10A1B800384604F0CDFAF9E604363FF4F7AE08A9BC
:10A1C800002341F8043DBDF81A0001F005FC78B9F8
:10A1D800079B6BB15B7803F00C03042B08D1BDF827
:10A1E8001A300D4885F81A42A5F81B3204F0A6FA71
:10A1F8000121384604F008FC0378FA2BD8D8CF237D
:10A20800BB80384604F024FA0023014600931A461E
:10A218000248C9E6C1D104002D8F0200697104000B
:10A228002DE9F04F40F62B0289B040F2471107465E
:10A2380004F0C4FC0146054640F2471004F0E1FC76
:10A2480090F800800446FFF75FFD00230290072185
:10A258002846049304F0D8FB0722014606A82DF0EF
:10A268009BFBA3794BB108F00308B8F1010F04D8A0
:10A27800A2884FF6F7739A4203D9284604F068FA81
:10A28800ABE2384624F0CEFA70B1BDF81A3001932B
:10A298000423009340F2471240F6770301214FF060
:10A2A800FF3008F065FEE8E76378990612D5B94BE8
:10A2B80093F8D830012B0DD804A9A08801F08CFBA5
:10A2C8000028DAD1049B002BD7D01B7803F00C03AD
:10A2D800082BD2D163884FF6F772934244D94FF6D0
:10A2E800FF72934215D04FF6FD729342A94A02D1EC
:10A2F80092F8CD1169B992F8D820022ABDD0053359
:10A308009BB2012BB9D8B8F1010F2DD0BDF81AB006
:10A3180009E0B8F1010F27D09E4BBDF81AB093F8A9
:10A32800D830022B12D0DFF86C924FF0000A0AF2F4
:10A33800552303EB090613F809E01EF0010F40F05E
:10A348008F800AF1070ABAF1700FF0D1914B93F898
:10A35800CD314BB12046FFF79BF800288DD0204621
:10A36800FFF7EEF8002888D0BDF81A004FF6F7730B
:10A3780098421ED8874B93F8CD31D3B16378DA066B
:10A3880040F14181A288824240F03D811E074CBFC6
:10A3980004F1100604F10806014605AB0022304618
:10A3A80003F092FF28B904AA01219DF8140001F0D6
:10A3B80001F96378980740F12C81384602F0DCFBFC
:10A3C800002840F00A82294640F2471004F019FCA0
:10A3D800EB7843F0120307210446EB70284604F09B
:10A3E80013FB072206A92DF0D7FAA379B8F1010FBC
:10A3F80003F1FF33A37140F02181294640F2471051
:10A4080004F0FFFB029BC65C731E0B2B3FF635AFB7
:10A41800012E0AD062884FF6F7739A4205D9204672
:10A42800FFF736F800283FF428AF5A4A92F8D83098
:10A43800012B638800F2A1814FF6F7718B4240F23D
:10A44800FF80A379002B00F0A081B8F1000F00F085
:10A45800A081093E012E00F298810126B14604E14F
:10A468007078039300F00300400140F2DF6240F28D
:10A47800471140EADE0004F0A1FB014640F2471014
:10A4880004F0BFFBA2888188039B91427FF459AFF7
:10A4980013F80900737803F003035B0140F2DF62ED
:10A4A80043EAD00040F2471104F088FB014640F22D
:10A4B800471004F0A6FBE379C2799A427FF441AFD2
:10A4C8004FF6FE739B453FF441AF05A9584601F08E
:10A4D80083FA00287FF43AAF059BD9F8E022D6F832
:10A4E80003109A1A2C4B5343584200F007004FF0C0
:10A4F800080293FBF2F203F0070358BF434201201E
:10A5080000FA03F3885C03438B547378307803F0C4
:10A5180003035B0140F2EA6243EAD00040F24711CC
:10A5280004F04CFB014640F2471004F06AFB4088F7
:10A538004FF6FC73C01A18BF012001F075FB174BCA
:10A54800196807318246C908D6F8030003F0CCFF22
:10A558005FFA80FBDA4523D00AF1FF3AD3457FF44E
:10A56800F5AE7378307803F003035B0140F2F662CE
:10A5780043EAD00040F2471104F020FB014640F2C4
:10A58800471004F03EFB034B8288B3F8C0319A426F
:10A598001DD1DBE694860020F1F0F0F0882B002036
:10A5A8007378307803F003035B0140F2F26243EA08
:10A5B800D00040F2471104F001FB014640F2471079
:10A5C80004F01FFBB9F8C03182889A42C4D171786F
:10A5D800307801F003014FF0000949014B464A4623
:10A5E80041EAD001CDF800907D4808F0B5F83378FD
:10A5F8007C4A69F3000333707A4B93F8C532013B08
:10A6080082F8C532A2E605AB0022012103F044FD21
:10A61800C8E6744B93F8982151073FF4E6AEB8F1B9
:10A62800000F7FF4E2AE93F8B023D2077FF5DDAEDA
:10A6380093F8E4355E077FF5D8AE1EE60026F4E60B
:10A64800B2F8C0219A4200F0A080294640F2471093
:10A6580004F0D7FA029BC35C052B00F09680A6791C
:10A66800003618BF01264FF0000904A9BDF81A00EA
:10A6780001F0B2F958B9049B9DF81C20DA700498CF
:10A688009DF91D3003719DF91D1001F0F9FA40F292
:10A69800E77240F24711384604F090FA82460146C4
:10A6A80040F2471004F0ADFA07218046504604F006
:10A6B800ABF998F801308246D8066ED519074CBF19
:10A6C80008F1100008F1080005A901F099F920BB6C
:10A6D800059B5A7812F01C0F1FD0B8F80400BAF87E
:10A6E8000220824219D0B8F802104FF6F772914250
:10A6F80004D91B7803F00C03042B0ED068B198F82A
:10A708000130DA064FD519074CBF08F1100008F1DF
:10A7180008000FF099FE07F077FBB9F1000F45D05C
:10A728006378DA060AD51B074CBF04F1100004F160
:10A73800080005AB0022A18803F0C6FD96B13B4690
:10A7480001220021284803F091FF98B104230093C7
:10A75800019740F6292340F2471201214FF0FF30BC
:10A7680008F006FC0123009300231A4639461F48C7
:10A7780007F0F2FF09B0BDE8F08FB2F8C0219A42A5
:10A7880003D04FF6F772934205D900264FF001091E
:10A798006BE70126FAE7002660E605A9B8F8040089
:10A7A80001F01AF993E70FF03EFEB4E7002E3FF4EC
:10A7B80064AD0721284604F027F9FF2383712FB9D8
:10A7C80040F6332140F2471004F02AFA00230093A0
:10A7D8001A463946064807F0BFFF10F051FFC9E78F
:10A7E8008DAB02009486002005940200D5AF0200CC
:10A7F800399D020010B5214B93F8B02193F8AF01B1
:10A808009C1894F89A11FE2929D1FF2184F89A11ED
:10A818000132152492FBF4F104FB1122B3F8B211B2
:10A8280083F8B021013189B21428A3F8B21107D8EE
:10A83800013083F8AF011A44002382F89A3110BD21
:10A84800981890F89A01091AFF28A3F8B2111EBFA8
:10A85800B3F8B41101F1FF31A3F8B411EBE710B963
:10A86800012083F8AF011A44013182F89A11B3F834
:10A87800B2210132A3F8B22110BD00BF9486002096
:10A8880013B51E4B93F8AF2112B9012283F8AF21FB
:10A89800B3F8B401421CA3F8B42193F8B0211524ED
:10A8A800511C91FBF4F204FB121293F8AF1183F8D8
:10A8B800B021142913D8013183F8AF111A4493F841
:10A8C8004438002113F0010382F89A1105D100934E
:10A8D8001A4619460A4807F03FFF02B010BD9918FA
:10A8E80091F89A41B3F8B211FF2CA1EB0401A3F837
:10A8F800B21118BFA3F8B401E0E700BF94860020A6
:10A90800F98B03002DE9F04140F2C9528AB040F2B8
:10A918004711054604F052F90121044604F074F881
:10A928008046FFF767FFB4F904302BB123F0080322
:10A93800E12B01D1FFF7A4FF98F80030FA2B23D1BF
:10A94800874E96F8D031072B3AD10022FF2185484F
:10A9580008F04CF996F8CD7167B96C2239468148F0
:10A9680007F074FF284686F8F37101F0ABF90AB0D6
:10A97800BDE8F08140F2451200217A4807F066FFF1
:10A98800204603F0E5FEF2E7FC2B09D1744B93F85F
:10A998000713FF2201F001012846FEF79DFDE6E7B7
:10A9A800FD2B03D1284624F07FFDE0E7E12B07D1FA
:10A9B80000236D4800931A46294607F0CDFED6E7D6
:10A9C800214640F2471004F01CF9014604A821F082
:10A9D8002DFA98F80020BDF81670FB2A06461BD100
:10A9E8000921204604F010F8A38800F8013BBDF8BF
:10A9F80016304FF6FF72934209D00146184603F00D
:10AA080075FB002300931A4629465848D5E70822C3
:10AA180000212CF0EAFFF4E7FA2A5DD9B4F90430F2
:10AA2800E12B14D14FF6FF718F4212D1FF2A10D1BA
:10AA38001521204603F0E8FFFE230375284621F080
:10AA4800DFFA002300931A4629464948B5E7002B48
:10AA580096D0434E284686F81A32A6F81B72FEF79F
:10AA680061FA214640F2471004F0CBF8214640F243
:10AA7800471004F0C6F82146054640F2471004F096
:10AA8800C0F82146477840F2471004F0BAF821464A
:10AA980090F8018040F2471004F0B3F80278BF093B
:10AAA800C8F3810802F040024146384621F00BFA0B
:10AAB80028444388A6F81B32B4F90430002B3FF42D
:10AAC80056AF43785B077FF552AF83882948012248
:10AAD800002103F0CBFD4AE7214640F2471004F07D
:10AAE80090F8835D03F00303032B05D10023009343
:10AAF8001A462946204860E7B4F904309BB121463C
:10AB080040F2471004F07DF80222811911440DF13A
:10AB18000E002CF041FFBDF80E004FF6F773984277
:10AB280001D825F0F9FC00231A460093294613485A
:10AB380007F012FEB4F90420094B4AB1F12A07D0F4
:10AB48000F4883F81A22A3F81B7203F0FCFD0EE7E6
:10AB580093F8D820022A04BF002283F84D2806E77C
:10AB6800948600208519050031080400D17F030070
:10AB7800C1D1040095CE0200CD60040069710400C3
:10AB88002D8F020030B540F6562287B040F24711AB
:10AB9800044604F013F80221054603F0E5FE1822E6
:10ABA800002168462CF021FF6846022121F016FAA0
:10ABB8006846022121F000FA9DF8003023F0400396
:10ABC80043F040038DF800304FF6FF73ADF80630C0
:10ABD8000A4B0221B3F8C031ADF810300122084603
:10ABE80021F071F90146284603F09EFE694621F0DE
:10ABF80098F92046FFF786FE07B030BD94860020FE
:10AC08001C22002101482CF0F0BE00BF2E88002035
:10AC180038B50D46044628B940F6326140F247106F
:10AC280003F0FEFF0722002120462CF0DEFE6FF025
:10AC380001024FF0FF3322706370A270E370A571B8
:10AC480038BD00002DE9F04340F207228BB040F2F6
:10AC58004711044603F0B2FF0E21074603F0D4FE65
:10AC680005462CB940F2112140F2471003F0D8FFF5
:10AC78002DB940F2122140F2471003F0D1FF704E77
:10AC880096F8B04314F001040AD1C223BB803846B9
:10AC980003F0DEFC0094014623462246694878E02A
:10ACA800AB7953B196F8E43513F0040305D096F860
:10ACB800983113F0070318BF0123DCB296F89431DA
:10ACC800032B19D896F876212B8822B1B6F878216B
:10ACD800934200F0948096F8802122B1B6F8822140
:10ACE8009A4200F0A68096F88A21002A56D0B6F833
:10ACF8008C219A4200F0A0804FF000082B7A2A8815
:10AD0800012B4DD1B6F8C011ADF81410002304A9D9
:10AD180038468DF810408DF811308DF812308DF8C6
:10AD28001330ADF81620FEF75DF80446002852D01F
:10AD38002B7A012B01BF6B8983802B7BC371AB7886
:10AD48001BB996F832315B00DBB2A3716B79002B2B
:10AD580051D02A884FF6F7739A4248D8237843F09F
:10AD680040032370B8F1000F28D0637843F0040340
:10AD78006370EC790721384603F046FE2146FFF759
:10AD880047FF384603F064FC002301462E48009331
:10AD98001A4607F0E1FC0BB0BDE8F0839046ADE73A
:10ADA800EB78B6F8C0110094002002900190581E6C
:10ADB800434243413846FEF7EBFCB6E76B79002B7C
:10ADC800D7D02A884FF6F7739A429EBF237843F06C
:10ADD80040032370CDE7009040F2922340F24712DF
:10ADE80001214FF0FF3008F0C3F8D3234EE7B8F144
:10ADF800000FE6D0B9E7B8F1000FB6D1B9E7DFF830
:10AE08004C8098F8019009F10101490001F0FE0118
:10AE1800384603F089FD08F1040180F8009080F8B5
:10AE280001904FEA490202302CF0B6FD4FF00108BC
:10AE380064E7DFF81C80E4E7DFF81880E1E700BF8B
:10AE48009486002069710400399D02000A88002058
:10AE5800148800201E8800202DE9F04340F26B7210
:10AE680089B040F24711064603F0A8FE04460146A1
:10AE780040F2471003F0C5FE2146054640F2471050
:10AE880003F0C4FE2844214610F8028C40F2471013
:10AE980003F0B7FE2146054640F2471003F0B6FE20
:10AEA8002844214610F9017C40F2471003F0A9FE1E
:10AEB800014602A820F0BAFF02210546204603F009
:10AEC80094FD2946204603F07AFD0378C3F38303F3
:10AED800022B054603D0204603F03AFC17E0214632
:10AEE80040F2471003F092FE81462846FEF70CFF19
:10AEF800A9EB00000028EEDD2B7803F00303032BF9
:10AF08000AD1FBB2424602A930461BF0F7F910F00D
:10AF1800B7FB09B0BDE8F0830721204603F074FDB4
:10AF280000210546FFF774FE9DF809309A09022AA8
:10AF380006D1BDF818206A804FF6F7718A42CAD840
:10AF4800C3F38103022B04BFBDF80E302B8085F8B4
:10AF580004806F71E378064843F04003E3700123EF
:10AF6800009300231A46314607F0F6FBD1E700BFED
:10AF780029A2020007B5144B93F8D8208AB1012AF8
:10AF880007D193F89701C04340F3000003B05DF880
:10AF980004FB002211460DF1030303F07DF801467E
:10AFA80010B14FF0FF30F1E701AA9DF8030000F05F
:10AFB80001FB0028F5D1019B5B7813F01C0F14BF2F
:10AFC8004FF0FF300020E1E7948600202DE9F0479C
:10AFD80040F6752286B040F24711064603F0EEFDB2
:10AFE8000146054640F2471003F00BFE07788046FD
:10AFF800FEF78AFE07F003070446002F3ED1C94A30
:10B0080092F8D93253B982F8D962314600931A4678
:10B01800C54807F0A1FB06B0BDE8F087C34BD2F8DE
:10B02800D5121B6888685B08984211D248680144A9
:10B038000E73D2F8D502816801318160D2F8D50249
:10B0480042680132B2FBF3F103FB11234360E2E7EC
:10B058000423009340F2471201214FF0FF3001967C
:10B0680040F68D2307F084FF40F68E2240F2471108
:10B07800304603F0A3FD03F06BFBA7E0012FCAD114
:10B08800294640F2471003F0BCFD075D042F40F04D
:10B09800A080294640F2471003F0B3FD204440F653
:10B0A800783290F801909F4D002440F247113046C5
:10B0B800059403F083FD95F8B0330746D80719D5F2
:10B0C80021460DF113032246B8F8040002F0E4FF0C
:10B0D800014678B905AA9DF8130000F06BFA4FEA0B
:10B0E8009913002800F05181D90703D49DF8130063
:10B0F80002F0CEFD3846BEE7B8F80400FFF73AFF85
:10B108000028F7D1B8F802204FF6F7739A42F1D821
:10B1180095F8984114F007044FEA59184CD10721C3
:10B12800384603F071FC4FF0010AB5F8C011CDF8AC
:10B1380008A006468DE8100400234FF6FD72384635
:10B14800FEF726FB80F806A01CB1FB7843F002034B
:10B15800FB70012204215FFA88F83846FEF768FB85
:10B1680018F0010F14BF202300235FEAD91214BF7F
:10B178006FF07F0200221343037095F807333046BF
:10B1880068F30003FC2185F80733FFF741FD3846D3
:10B1980003F05EFA28B94FF4416140F2471003F01A
:10B1A8003FFD384603F054FA0023014660480093F7
:10B1B8001A4607F0D1FA09E095F8E4355A07AED4F3
:10B1C800FF2208F001013046FEF786F910F058FA20
:10B1D80021E7072F03D1304626F00EFCF6E70C2FA7
:10B1E8000BD1294640F2471003F00BFD621C0244C4
:10B1F8004146284606F056FEE8E74A4B93F8D83011
:10B20800022B00F0BC80012F0BD1294640F24710D9
:10B2180003F0F7FC621C02444146284624F000FE75
:10B22800D4E7022F0BD1294640F2471003F0E9FC7E
:10B23800621C02444146284625F03EF8C6E7052F21
:10B2480005D122464146284601F096FDBEE7082F63
:10B2580005D122464146284626F0B0FEB6E7062F1D
:10B2680003D1304624F040F8B0E70B2F0BD1294624
:10B2780040F2471003F0C5FC621C024441462846D0
:10B2880006F09AFEA2E7092F28D1294640F2471076
:10B2980003F0B7FC01340746035D1B0900EB040803
:10B2A8000FD03B5D1B0901930423009340F6E7236D
:10B2B8004FF0FF3040F24712012107F059FE2846AF
:10B2C800D9E608221B4908F101002CF0DCFA002815
:10B2D800E7D14146304601F0CDFA77E7032F2DD16B
:10B2E800294640F2471003F08CFC621C831810F8C2
:10B2F8000280B3F80140B8F10D0FA1B203D1304676
:10B3080023F076F962E73946284603F07DFB0123EE
:10B3180080F80080A0F80140009300231A463146C7
:10B32800054846E794860020397604008C2B0020D7
:10B33800399D0200648700205D7B03000A2F1ED11F
:10B34800294640F2471003F05CFC01340646035DD1
:10B358001B0900EB040807D0335D1B090193042384
:10B36800009340F60F33A3E70822184908F10100BB
:10B378002CF089FA0028EFD1404601F0EBFA0423BB
:10B388000093019740F6263392E7DB073FF5B4AE0A
:10B39800C9F340139DF8130085F8053385F80403B5
:10B3A80002F01CFC0A4803F0C9F9059B5B7813F00E
:10B3B8001C0F7FF49FAE5FEAD9133FF49BAE95F85C
:10B3C800D830022B7FF4A4AE94E600BF6487002037
:10B3D800299502002DE9F041174B06461868174BCE
:10B3E80017468846D3F8E0220123834203D36FF03F
:10B3F8001500BDE8F08103EB03115518545C14F0F7
:10B40800010417D12146112228462CF0EEFA2B7898
:10B41800A5F8058043F003032B7006220849E81DB0
:10B428002CF0BAFAAB7B66F30403AB733D6020469D
:10B43800BDE8F0810133D8E7882B002094860020EE
:10B4480078290600044B1A68044B4FF0FF31D3F8F3
:10B45800E4022CF0CABA00BF702B002094860020AA
:10B46800F0B400231360114B1F68114BD3F8E0624E
:10B478000123BB4202D3F0BCFFF7ACBF03EB0315BB
:10B488007419755D05F00305032D08D1B4F805504E
:10B498008D4204D1A57B05F01F05854201D00133FB
:10B4A800E7E714600020F0BC704700BF882B00203D
:10B4B800948600202DE9F74F884681466946404624
:10B4C800164602F07DFADFF874B0DFF874A00125A3
:10B4D8006FF01B04DBF800309D4213D314F11C0FEE
:10B4E8000CD132464FF6FF714846FFF773FF04460A
:10B4F80020B931684046073102F062FA204603B0AD
:10B50800BDE8F08F05EB0517DAF8E032D819DB5DF6
:10B5180003F00303032B0ED1837B03F01F034B457A
:10B5280009D16946073002F01FFE20B1DAF8E0328F
:10B538003B44336000240135CCE700BF882B002052
:10B548009486002010B5094BD3F8E422FF24145444
:10B5580001EB0111D3F8E0325A5C6FF300025A5440
:10B5680002F0F8FBBDE8104005F0A8BD9486002065
:10B5780010B50E4CD4F8E422115CFF29034612D012
:10B5880001EB0112D4F8E042A25C02F00C02082A96
:10B5980006D101220021064803F068F8002010BDFA
:10B5A800FFF7D0FFFAE76FF01B0010BD948600206C
:10B5B8008D2203002DE9F84317462A4AD2F8E432CF
:10B5C8001B5CFF2B064691463ED1002945D0264BF1
:10B5D800D9F8E0121A680023DDB2AA4203D86FF046
:10B5E8001500BDE8F88305EB0518013311F80800CC
:10B5F80010F00104F0D1304602F0F0FAD9F8E43244
:10B608009D55D9F8E09209EB0805112221462846F4
:10B618002CF0EBF919F808206B7842F00D0209F8C4
:10B62800082043F00203032262F3840364F3000357
:10B638006B70EB79AE7143F07003EB717F232B7164
:10B648003D6005F03BFD05E0D2F8E02203EB031373
:10B6580013443B600020BDE8F8836FF01B00BDE891
:10B66800F88300BF94860020882B00200A4BD3F86B
:10B67800E0220A4B1B6803EB0313134400209A4291
:10B6880000D17047117801F00D01092904BF01307C
:10B69800C0B21132F3E700BF94860020882B002047
:10B6A8002DE9F04F85B00DF110091B4B002417460A
:10B6B80029F8024DD3F8E062184A83468A4625469F
:10B6C800A0461368984501D2544503D3204605B0D7
:10B6D800BDE8F08F337803F00D03092B18D101353D
:10B6E800EDB25D4514D3B1790192484602F05EFA95
:10B6F8003B68019A591C3960BDF80E1019703968F9
:10B708004B1C3B60BDF80E3001341B0A0B70E4B2D1
:10B7180008F101081136D4E794860020882B002010
:10B72800F0B5037803F00303032B85B004460E46F7
:10B7380005D040F2AB114FF4A47003F071FA4E4DEE
:10B74800E6B14E4BD5F8E012D3F800E00022D6B2AD
:10B75800B64513D906EB061688198B5D13F0010759
:10B7680002F10102F3D1214611222CF015F92378B8
:10B7780067F300032370D5F8E0423444B4F8052099
:10B788004FF6FF739A4204F1070650D006223C494F
:10B7980030462CF078F80246002840D0314602A8FE
:10B7A80002F050F90DF107030022B4F8051002A8C1
:10B7B80002F08AFD06469DF80700002E43D1D5F811
:10B7C800E4321B5CFF2B3ED102F008FA0C22314612
:10B7D800601D2CF00AF9D5F8E0222A4BD5F8E402CE
:10B7E8009DF80710A21A534343542378627803F054
:10B7F8000C01083918BF012161F34102032161F3EB
:10B8080084026270E27942F07002E2719DF80720CA
:10B81800A27166F341033046237005B0F0BD0DF107
:10B8280007030121B4F8050002F036FCC2E73146EF
:10B8380002A802F007F90DF107030022012102A86E
:10B8480002F0F4FCB6E7D5F8E4321B5CD5F8E00268
:10B8580003EB0313C25C02F00C010C2901BF217831
:10B86800C1F3810161F38302C254237803F0FD031D
:10B878006FF30003CFE700BF94860020882B0020D9
:10B8880078290600F1F0F0F02DE9F7433D4C3E4FE2
:10B8980094F8B03313F0010F804613D101233A68AE
:10B8A800934226D203EB0311D4F8E002425C02F083
:10B8B8000305032D02BF02F0FD026FF3000242549C
:10B8C8000133ECE70DF1050104F1D00001F0DCFFD4
:10B8D80000252E464FF6FF79C8450DD14FF0000ED2
:10B8E80001263B689E4223D3BEF1000F01D005F02C
:10B8F800E5FB03B0BDE8F0833B689E42EED2002D25
:10B90800ECD106EB0613D4F8E022D118D35C03F08F
:10B918000303012B0AD189790DF1060002F046F9DB
:10B92800BDF80650A5EB08035D425D410136D3E73B
:10B9380006EB0613D4F8E022D15C01F003010329D9
:10B9480002EB030014D1817B9DF805C001F01F01B3
:10B9580061450FD194F8D810012904D9B0F8051021
:10B96800414507D135B90021FFF7DAFE4FF0010E46
:10B978000136B6E7D15C01F0FD016FF30001D15447
:10B98800F6E700BF94860020882B002010B50E4BE8
:10B998000E4C1A68D4F8E00200212CF026F80C4B63
:10B9A800D4F8E4021A6800212CF01FF80023094893
:10B9B800C4F8E832C4F8EC3284F8F03202F0C3FE7E
:10B9C800BDE81040FFF73EBD882B0020948600207C
:10B9D800702B00201523030013B500220C460DF12F
:10B9E8000703114602F058FB014628B922469DF884
:10B9F8000700FFF7DFFD08B16FF01B0002B010BDB4
:10BA080013B500220C460DF10703114602F00EFC97
:10BA1800014628B922469DF80700FFF7CBFD08B17B
:10BA28006FF01B0002B010BD10B50B4B1C680B4B20
:10BA3800D3F8E032A0420BD200EB001299189A5CBE
:10BA4800D20703D54A78920700D510BD0130F1E737
:10BA58004FF0FF3010BD00BF882B002094860020D7
:10BA6800F0B5114B1D68114BD3F8E0424FF6FF7645
:10BA7800A94216D201EB0113E218E35CDF070ED5E9
:10BA8800527802F00C07042F09D103F00C03082B9D
:10BA980005D1B04203D1930701D40846F0BD013166
:10BAA800E6E74FF0FF31F8E7882B00209486002066
:10BAB80070B5114B1E68114BD3F8E0420023B34216
:10BAC80002D16FF01B0070BD03EB0312A518A15C37
