:020000022000DC
:1060000000000420E1620200096302000B63020049
:106010000D6302000F630200116302000000000024
:1060200000000000000000000000000013630200F8
:1060300015630200000000001763020019630200EC
:106040004D9502001B630200019A02001B630200CF
:106050001B6302001B630200599802001B630200CD
:106060001B6302001B6302001B6302001B63020030
:106070001B630200219B02001B6302001B630200E2
:106080001B6302002D7202001B6302001B630200EF
:10609000C97202001B63020061D20200950F050065
:1060A0001B6302001B6302003D9D02001B63020094
:1060B0001B6302001B6302000000000000000000E0
:1060C0001B6302001B6302001B6302001B630200D0
:1060D0002D0105001B6302001B6302001B6302000D
:1060E0001B6302001B6302001B6302000000000030
:1060F000000000001B630200000000001B630200A0
:10610000000000000000000000000000000000008F
:10611000000000000000000000000000000000007F
:10612000000000000000000000000000000000006F
:10613000000000000000000000000000000000005F
:10614000000000000000000000000000000000004F
:10615000000000000000000000000000000000003F
:10616000000000000000000000000000000000002F
:10617000000000000000000000000000000000001F
:10618000000000000000000000000000000000000F
:1061900000000000000000000000000000000000FF
:1061A00000000000000000000000000000000000EF
:1061B00000000000000000000000000000000000DF
:1061C00000000000000000000000000000000000CF
:1061D00000000000000000000000000000000000BF
:1061E00000000000000000000000000000000000AF
:1061F000000000000000000000000000000000009F
:1062000010B5054C237833B9044B13B10448AFF3F0
:1062100000800123237010BD482F002000000000E3
:10622000E05A05000C4B43B10C480D4910B5AFF3D3
:1062300000800C48036823B910BD0A48036833B9CD
:106240007047094B002BF7D0BDE810401847064BAC
:10625000002BF5D0184700BF00000000E05A0500F1
:106260004C2F00208C2E002000000000154B002B2E
:1062700008BF134B9D46A3F5803A00218B460F467D
:106280001348144A121A2BF03DF80F4B002B00D084
:1062900098470E4B002B00D09847002000210400A7
:1062A0000D000D48002802D00C48AFF300802AF002
:1062B000ADFF2000290005F00BFB2AF081FF00BF95
:1062C00000000800000004200000000000000000A2
:1062D000482F00208468002000000000000000001B
:1062E0000649074A074B9B1A03DD043BC858D050A8
:1062F000FBDC06F0C7FCFFF7B9FF00004C5C0500B3
:10630000982A0020482F0020FEE7FEE7FEE7FEE780
:10631000FEE7FEE7FEE7FEE7FEE7FEE7F0B595B035
:106320001C4608460D46164602F0D2F81A9B099400
:1063300000240D930822234605A9284608960A94AE
:106340008DF82C400C9402F0E1F8079B0293BDF805
:106350001830ADF80C30BDF81A30ADF80E309DF89D
:1063600014308DF8114003F00302012A1DD1BDF84D
:106370001440059EC3F3C203C4F383148DF8103098
:10638000A20008230EA9284602F0C0F8C6F39526FD
:1063900008AB0093224602AB0EA9304600F00AFD7E
:1063A000284602F099F815B0F0BD022AF8D1BDF8E0
:1063B0001640C3F3C203C4F389148DF810300827C4
:1063C000082C264628BF08263B4632460EA92846FA
:1063D00002F09CF8A41B08AB02AA31460EA8374471
:1063E00000F04CFD002CEBD1DAE70000014B01225C
:1063F0001A707047A52F00207047000070B50F4D30
:1064000006460FCD88B06C460FC495E80F00002EED
:1064100084E80F004FF006030093094A09484FF043
:10642000805308BF00226946069302F0EBFF08B1D3
:1064300000F086FE044B1E7008B070BDDC2805001D
:10644000ED630200982A0020642F002007B5044B5A
:106450000093044A4023FFF761FF03B05DF804FB9B
:1064600069640200652F002038B50D4B0D4D0020EA
:1064700018700D4804782D5DD2B21C4665B1043009
:1064800004F0F8F808B100F05BFE084B1A7812B17E
:106490002378002BFBD038BD0C3003F0AFFEF1E7C2
:1064A000A52F002054500020982A0020642F00209F
:1064B00008B50848084A0378D35C3BB1043004F0BF
:1064C0007FF80020BDE80840FFF798BF0C3003F0CC
:1064D0003BFEF6E7982A0020545000200120FFF7E9
:1064E0008DBF000008B5FFF7F9FF0421034800F055
:1064F000BFFB034B01225A7108BD00BF345C05008D
:10650000AC2A0020037813F0040216D003F0030332
:10651000012B03D0022B09D0012070470A680088A4
:106520000232C0F3831002440A60F5E70B68428828
:10653000023303EB92130B60EEE710467047000046
:106540002DE9F04F89B00646851C08A8494C0192F8
:1065500000230F4600F8113D01F0A2F823683B60CC
:106560006268A3681344226801339B1A04F21C4733
:1065700004F5836A04F21448AB421AD3019A00234B
:10658000002A6FD0012262F3010343F0040366F393
:1065900089132168A2689DF80F000A4003320D4458
:1065A00044F82230256001F09FF8012009B0BDE8D1
:1065B000F08F0121384601F0B3F9504601F0CDF9D2
:1065C000404601F0CAF90DF120096068D4F808B01E
:1065D00049F8100D00EA0B00033004EB8000494637
:1065E000FFF790FF049BB8B90BEA030204EB8202A9
:1065F000D16805919A1C013303EA0B0B04EB8B0E57
:106600000492DEF80C30069301F00303012B21D035
:10661000022B04D083460CE00BEA0300DCE7BDF854
:106620001630BDF81AB0C3F38913033302EB93039A
:106630000493404601F094F908B1049B6360594605
:10664000384601F06DF96268A3681344226801338B
:106650009B1A91E7BDF81430BDF81AB0C3F3831349
:106660001344E5E7022262F3010343F0040366F3F7
:106670009F538EE77830002030B50A4B0A4A0B4909
:10668000D21AD20800239A4201D1052030BD31F838
:1066900023500468A54202D10360002030BD0133BD
:1066A000F1E700BF945B0500345C0500A42E0020D8
:1066B0002DE9F84F224B2348FF229A600022C3F8AD
:1066C00018241A605A60C3F8142483F8202401F0B7
:1066D000B6FE804688B91C481C4E1D4DDFF874B0CC
:1066E00002F006F8AD1BED084446AC4208D1002389
:1066F000184919481A469C421BD14046BDE8F88FFC
:106700004FF000094F4606EBC40ABC420AD01422DF
:1067100056F83710DAF800002BF03CF90028C8BF13
:1067200009F101090137BD42EFD12BF82490013462
:10673000DBE701EB830540F823206A800133DAE7C9
:10674000783000207C5B05001C290500945B050067
:10675000345C0500A42E0020F42E002007B5019023
:1067600031B9074B019A53F8320003B05DF804FBCE
:1067700001A8FFF781FF0028F3D00020F5E700BF54
:10678000945B0500094B013903EBC000032909D8CC
:10679000DFE801F00A020406042070470079704720
:1067A000407970470020704702207047945B0500D5
:1067B00030B5124C00EB400054F8215082400723C2
:1067C00003FA00F06A4002406A40C2F3C20302F0DA
:1067D0000700834238BF0346C2F38210834238BFAA
:1067E0000346074844F82120C2F3422200EB81010E
:1067F0009A4238BF1A464A8030BD00BFF42E0020AE
:10680000A42E0020034B58681B68C31A58425841F5
:10681000704700BF783000202DE9F04786B0FFF7C1
:10682000F1FF0646002840F00E818F4DC5F8180490
:10683000BFF34F8F6868AC6806AF47F8100D204073
:10684000033005EB80003946FFF75CFE029B18B170
:10685000D5F81824002A62D004EA030205EB82026C
:10686000D66803969A1C0133234005EB8303F6B2E6
:10687000DB68049306F00303022B029261D1BDF89A
:106880000E307A48C3F389194F46502FA8BF5027BE
:1068900067F38F1307F10801ADF80E3001F0E7FD43
:1068A000C6F3C2068046002800F0D58001F010FE35
:1068B000082203A90023404601F01DFE029924EAA4
:1068C000010201329200974234D9002A00F0BD80C3
:1068D00021405FFA82FA0331A7EB0A07644C05EB0B
:1068E0008101FFB208235246404601F004FE34B154
:1068F0000AF108033A462146404601F0FCFD029B9E
:1069000009F1030903EB99030293D5F81834002B1E
:106910004ED1D5F81044574F4FF0070968E02A6868
:106920009A4204D86A60304606B0BDE8F08704EAAF
:10693000030085E70C40E11C08233A4605EB810182
:10694000DAE7012B40F08780BDF80C604748C6F3BA
:106950008311062928BF062161F3891602318900B7
:10696000ADF80C6001F083FDC6F3C2068046002836
:1069700071D001F0ADFD0023082203A9404601F0CB
:10698000BAFD0027BDF80C20C2F38312BB1C97424E
:106990004FEA8303B9D202994A1C21400331029283
:1069A00005EB81010422404601F0A5FD0137E9E72E
:1069B000404601F091FDFFF725FF80F00100C6B2CF
:1069C000B1E7E3685A798AB11B79BDF8101003EB7F
:1069D000430257F8211009FA02F3052E03EA0103D6
:1069E00023FA02F308BF0326B34237D2E3681C68D8
:1069F000002CE6D1404601F06FFD06A800F8114DCD
:106A000000F04EFED5F818340BB9029B6B609DF870
:106A1000070000F069FECEE7236820469B68984790
:106A2000E3681C68002CF7D1134B5B88012BC2D99B
:106A3000124B13481349C01AC008000440F002006A
:106A400000F07AF8B7E700266DE75FFA87FA144698
:106A50000749174646E7D5F81044E3E7236841465F
:106A60001B6820469847C1E7783000207C5B050012
:106A700084300020F42E0020C02E0020945B0500FE
:106A8000CC5B0500282905002DE9F74F284C8046EE
:106A90000F46924601A9012218469B46A568FFF7BA
:106AA0004FFD88B3DDF80490002609F102025E452F
:106AB00034D100211F4800F0F3FE80F3100009F1EB
:106AC00001022A4004EB8202000405EA09030333B1
:106AD00040EA1840D06014F8232068F3C50204F897
:106AE000232034F8232066F3891224F8232054F855
:106AF0002320012167F39F2244F8232061F3010240
:106B00006FF3820204F8232094F820341BB1FFF7BE
:106B100083FE0028FBD103B0BDE8F08F02EA050137
:106B200004EB81015AF82630CB6001360132BEE712
:106B3000783000209434002000231A46FFF7A4BFC9
:106B400013B502AC012344F8042D2246FFF79CFF45
:106B500002B010BD07B58DE80C0002236A46FFF7AE
:106B600093FF03B05DF804FB1FB50293069B0192EF
:106B7000039301AA0323FFF787FF05B05DF804FB29
:106B80001FB58DE80C00069B0293079B03936A4692
:106B90000423FFF779FF05B05DF804FB2DE9F34707
:106BA0008046314CD01C8A46174601A90022800835
:106BB000A568FFF7C5FC002840D0DDF80490A66862
:106BC00009F10200019001362840361AB600B7429A
:106BD00000F103003CD83A46514604EB80002AF00D
:106BE0006CFB0021214800F05BFE80F3100009F1EE
:106BF00001032B4004EB8303000440EA1840D860F3
:106C000005EA0903033304EB830214F8231068F345
:106C1000C50104F8231034F823106FF38F1124F802
:106C20002310518867F38F11518014F8232002211B
:106C300061F301026FF3820204F8232094F82034F8
:106C40001BB1FFF7E9FD0028FBD102B0BDE8F087DA
:106C50003246514604EB80002AF02FFBBA1B0AEBA8
:106C6000060104F10C00BAE77830002094340020CB
:106C70002DE9F8431F4B8846D3F81014054600242D
:106C80000A469AB9E9680C71D3F81014A1B9C3F88F
:106C90001054EB681A60184F184EF61BF6084FF0A8
:106CA0000009B14511D12046BDE8F883D2681079BA
:106CB000A04218D01268E4E7C968EA680968116060
:106CC000D3F81034DB681D60E5E707EBC9034946DC
:106CD000DA79EB68424528BF42461879FFF768FD2C
:106CE00009F10109DDE701340A2CC9D14FF0FF3465
:106CF000D9E700BF78300020945B0500345C0500C4
:106D000073B5C38804460D4633B1144A0092144942
:106D1000144A284600F087FE217A05291CD0637AA0
:106D20004BB1A088FFF72EFD0F4B104953F82020E0
:106D3000284600F078FE227A0D4BA08853F8226096
:106D40000021FFF70BFD0B4903463246284602B0EF
:106D5000BDE8704000F067BE02B070BDA329050019
:106D60008B2905008329050050290500A829050065
:106D7000B8290500AB29050010B5037A052B0C4690
:106D80000FD0437A23B1084A0849204600F04BFE51
:106D90000749204600F047FE2046BDE8104000F0BD
:106DA00037BE002AF8D0F3E7A3290500A82905007B
:106DB000A02905002DE9F04385B01F460C9D002356
:106DC00006460C46904695F80C902B73294638469B
:106DD000FFF796FFB8F1060F09D8DFE808F00412B4
:106DE000181F283340003146284600F01CFE0022C0
:106DF00029463846FFF7C0FF85F80C9005B0BDE87E
:106E0000F08322683146284600F00DFEEFE794E853
:106E10000C003146284600F006FEE8E7A368009320
:106E2000314694E80C00284600F0FDFDDFE7E368FA
:106E30000193A3680093314694E80C00284600F0C3
:106E4000F2FDD4E723690293E3680193A3680093FA
:106E5000314694E80C00284600F0E5FDC7E7636979
:106E6000039323690293E3680193A3680093314677
:106E700094E80C00284600F0D6FDB8E708292DE973
:106E8000F84F80460E4617461C4638D8002593F822
:106E90000C901D7319461046FFF732FFDFF880A0F3
:106EA000DFF880B0AE422CD918F8052059462046AC
:106EB00000F0B9FD0135082DF4D11749DFF868B0AD
:106EC000204600F0B0FD0025AE421FD918F805A0FD
:106ED0002AF0C4F950445946437813F0970F14BF71
:106EE00052462E22204600F09EFD0135082DEBD1A2
:106EF000012221463846FFF73FFF84F80C90BDE899
:106F0000F88F5146204600F08EFDD3E70349204616
:106F100000F089FDE9E700BF7E2905007C29050016
:106F20007A29050074290500802905002DE9F84F0C
:106F3000DFF8A4B00025254B1B78ECB2A34201D8A2
:106F4000BDE8F88F224BD3F8008018F83490012068
:106F50004A4600212BF0D2FADBE9002300EA0206C0
:106F600001EA03073E4308EBC40A2CD023EA0101DF
:106F700022EA0000CBE90001484602F05DFC18F867
:106F8000344081462246012000212BF0B7FA114BF4
:106F9000D3E90067224606400F40484600212BF007
:106FA000ADFA8F4208BF86420DD1DAF8043053B1F2
:106FB0009AF801104A1E51425141A1EB0900414289
:106FC0004141204698470135B5E700BF34350020E0
:106FD0007035002060350020683500202DE9F84329
:106FE00007461F4800F04CFB002837D13A460120E5
:106FF00000212BF083FA1B4B04460D46D3E9000118
:1070000004EA000805EA010958EA09021E461FD1F0
:10701000384602F011FC144B98B1D3E9000120432B
:107020002943C3E90001D6E9002314431D43C6E9FF
:1070300000450E4B0A4819680022BDE8F84300F0ED
:10704000D9BAD3E9000120EA040021EA0501E8E702
:1070500020EA040421EA0505C3E90045BDE8F883F8
:107060003C35002068350020603500203835002090
:10707000042AF7B505460C46164638D902F00AFB35
:10708000C8B11C4B1C491D601C4B1D4F1C701D4B77
:1070900000221E600023C1E900231B49C1E900232F
:1070A000013CE4B20026FF2C0BD1184A18480021FD
:1070B00000F08EFA03E002F0B5FA0028E1D003B048
:1070C000F0BD23B205EBC302032192788DF80410C2
:1070D0008DF8052001A93A4615F833008DF80660B1
:1070E00002F0E2FA013CE4B20028DCD0E7E7072036
:1070F000E5E700BF70350020603500203435002002
:10710000DD6F020038350020683500202D6F020049
:10711000202A050070B5084D084E00242B789C42AB
:1071200001D3002070BD3368012113F8340002F050
:1071300039FB0134F2E700BF343500207035002000
:107140001FB50021039001AA44F2010001910291B0
:1071500024F09CF805B05DF804FB0000094A537860
:1071600091780133DBB2994208BF0023117899422C
:107170001FBF03705078182303FB002014BF043096
:10718000002070477435002073B5054602A800241E
:1071900000F8014D0E4600F083FA0DF10600FFF7EE
:1071A000DDFF90B106700A4B9DF8062045605A70CD
:1071B0009DF8070000F098FA24B9064B4FF48012AE
:1071C000C3F80021204602B070BD0424F0E700BFE0
:1071D0007435002000E100E0024B4FF43C6043F0C6
:1071E00001031847302A050038B50C4B0C4C4FF4FE
:1071F0000032C3F8802001254FF48033C4F84833AF
:10720000C4F808336560FFF7E7FF064BA56000246C
:107210001C60FFF7E1FF044B1C7038BD00E100E08B
:10722000001001409036002081360020F8B51F493B
:107230001F4B0025C1F84051C1F84451C1F84851D5
:10724000C1F84C51C1F80051C1F804511B684BB34F
:10725000D1F8044517490968641A24F07F442F4681
:107260001A68A24209D8A41A15441A7CDE691AB118
:107270001F745A6998699047AEB90F4B0F4A197835
:1072800013788B4205D10133DBB2022B08BF0023F8
:10729000137012780A4B43F822500A4B4FF48012B5
:1072A000C3F80021F8BD3346DAE700BF0010014003
:1072B00094360020903600208C3600208D36002039
:1072C0008436002000E100E02DE9F74F9C4A9D49FB
:1072D000137809789C4E994257D00133DBB2022BC8
:1072E00008BF0023137099491278994B0F6853F81F
:1072F00022003B1823F07F4300220B6033681546C1
:107300001446964613B942B1336006E019688142CB
:1073100029D902B13360091A19604FF001083368A6
:107320008C4FDFF83CB200934FF00009002D61D084
:107330002C46ED69854B60681A68831A23F07F41FB
:10734000854B9942A36800F2B7800B442360002369
:107350006360A360E361336801222274002B40F074
:10736000B3803460E2E7401A0C44D968C3F800E007
:10737000D3F81CC031B13A1922F07F42DD615A6066
:1073800099601D4663460122BCE70025A846C6E772
:10739000531CB978DBB299423B704FF0180303FBE2
:1073A000027208BF3D7013799468022B1BD0032B27
:1073B00011D0012B1ED1217CE1B9D3686360136920
:1073C000A3605369E3609369A361644B1B78002B4E
:1073D000B0D06160AEE7002335681A46002D67D152
:1073E00043B1356006E0326813469246002B5AD10D
:1073F000002323743A787B789342C9D1B9F1000F06
:1074000006D13368009A9A4202D1B8F1000F44D0F5
:107410003368002B73D0D3F800A0514D4B4BD5F8F7
:1074200004751C68DFF840813E1B98F8003026F098
:107430007F4603369BB94FF48033C5F84433C5F813
:107440000433484B4FF400324FF00109C3F8802158
:107450001A60C5F80090FFF7BFFE88F80090B245AB
:107460002CBF5444A41924F07F44C5F84045D5F8F6
:107470000435DB1B23F07F43E41B033324F07F44FC
:10748000A3420AD9D5F80435C5F84035FFF7A4FE64
:10749000344B4FF40032C3F80021304B00221A70F5
:1074A00003B0BDE8F08F9C422CD09A46DB699DE783
:1074B0002A740123ED6991E7121A22F07F429A4261
:1074C00034BF9B1A002341E7226819688A420BD80F
:1074D0008A1A1A60E36144E7521AD969184661B9F9
:1074E0002260E161DC6121E7184619689142F3D31B
:1074F000891A196019460346F2E70B46F5E7FFF7CC
:1075000073FECAE754450DD1D369336053B90F48B0
:1075100001920121CBF808100360104B1970FFF79E
:107520005BFE019AE1692368CAF81C1011B1086872
:1075300003440B6033689A4218BF4FF0010957E7C4
:107540008C3600208D3600209436002090360020A6
:107550008436002074350020FEFF7F008036002036
:107560000010014000E100E08136002008B5FFF77F
:107570003BFE114B00200B2218709A7058700F4B75
:1075800018600F4B18700F4B18700F4B4FF4801290
:10759000C021C3F8802183F814131A6002F18042DD
:1075A000A2F56F22C2F8080583F81113074BD2F831
:1075B00004251A6008BD00BF7435002094360020F1
:1075C0008C3600208D36002000E100E0903600204F
:1075D000074B9B784BB132B128B10368187C20B9B6
:1075E00059745A617047072070470820704700BFE0
:1075F000743500202DE9F7431E4FBB7805460E4633
:107600009046ABB3A0B3042930D9436983B3437C1C
:1076100002A80024012B00F8014D0CBF8946A146A9
:1076200000F03EF80DF10600FFF798FDE0B10123F0
:107630000370114B4560D3F8043583609DF8063024
:10764000C660C0F81090C0F814807B709DF80700E9
:1076500000F04AF824B9094B4FF48012C3F8002116
:10766000204603B0BDE8F0830424EFE70724F7E7E2
:107670000824F5E7743500200010014000E100E027
:10768000064A92783AB130B1426922B100220274BE
:107690000221FFF779BD0820704700BF7435002034
:1076A00070B5EFF3108672B60C4A946801239CB94A
:1076B00093600B4B0B4DD3F8801029401160C3F839
:1076C0008050D3F8841051604FF0FF32C3F884200B
:1076D000047006B962B670BD0370FAE74850002026
:1076E00000E100E0FC06FFBD10B5084B9A685AB1F6
:1076F00050B9EFF3108272B605491C680C605C68E3
:107700004C60986002B962B610BD00BF48500020BE
:1077100000E100E010B561B1B2FBF3F403FB142407
:10772000A4B244B980E8120084608281C3812046FB
:1077300010BD0E2010BD092010BD82B050E8022FF0
:10774000C188B2EB324F4FF0000317BF92B241EA4B
:10775000014142EA014104E04268B2EB324F08BF06
:10776000012340E80212002AE8D18DF807309DF885
:107770000730002B0CBF1120002002B0704737B536
:1077800050E8013F9DB2C48925448489A54228BFA1
:107790002D1B0489A54202BFBFF32F8F002207E0F3
:1077A000C5EA030540E80154002CE9D14FF001027D
:1077B0008DF803200193019B9DF803200B6002F0DC
:1077C000FF0322B10B880068184403B030BD18468F
:1077D000FBE70A884B889A4209D150E8012FC2EA98
:1077E000024240E80123002BF7D10120704700201E
:1077F000704737B550E8023F1FFAA3F5C488A54289
:1078000002BFBFF32F8F00220DE0C4892544848975
:10781000A54228BF2D1BC3EA054540E80254002CB1
:10782000E8D14FF001028DF803200193019B9DF8F0
:1078300003200B6002F0FF0322B14B88006818445C
:1078400003B030BD1846FBE70A884B889A4209D13D
:1078500050E8022FC2EA224240E80223002BF7D16F
:10786000012070470020704701F01F024B090121E1
:10787000914000EB830000F02CB801F01F030122BF
:107880009A404B0900EB8300D14300F03CB84B0910
:1078900001F01F0150F82300C84000F001007047BC
:1078A00000B550E8002F0B4640E8003E9EF0000F68
:1078B000F7D110465DF804FB00B550E8002F42EA0E
:1078C000010340E8003E9EF0000FF6D110465DF83F
:1078D00004FB00B550E8003F43EA010240E8002EF7
:1078E0009EF0000FF6D110465DF804FB00B550E89D
:1078F000002F02EA010340E8003E9EF0000FF6D19F
:1079000010465DF804FB00B550E8003F03EA0102B1
:1079100040E8002E9EF0000FF6D110465DF804FB03
:1079200000B550E8003F03EB010240E8002E9EF056
:10793000000FF6D110465DF804FB00B550E8003F9B
:10794000A3EB010240E8002E9EF0000FF6D1104696
:107950005DF804FB0121FFF7AFBF0121FFF7B9BFBD
:107960000021FFF7C3BF10B590B14268836801687A
:107970009B1ADBB20A60013BDBB2FF2B026802D12B
:107980000020107110BD11684C1C14600B70F2E7E0
:107990000E2010BD37B5054602A8002400F8014DA1
:1079A000FFF77EFE2A68696813688B4210D9591E5A
:1079B000116013F8014CAA8AEB6802FB04342A68B0
:1079C000AB6811685B1A1179DBB2994238BF137149
:1079D0009DF80700FFF788FE204603B030BD37B59D
:1079E000054602A8002300F8013D0C46FFF758FEAB
:1079F0002A681368591C1160E968641AA98AB4FBE3
:107A0000F1F41C709DF80700FFF76EFE03B030BD67
:107A100010B5826804462AB1436901680069984735
:107A20000023A36010BD0EB403B5039929B102AAC7
:107A300004AB42F8043D00F06DF802B05DF804EBD1
:107A400003B07047826830B40468551C8560A15447
:107A5000826843689A4202D330BCFFF7D9BF30BC7A
:107A6000704700002DE9F84F0A9C99460B9B17467A
:107A7000824688460A460126BA420FD24E4538BF92
:107A80004E4613F0010B01D164B900240125B9F170
:107A9000010F1AD909F1FF397D43F8E7B2FBF7F27C
:107AA0000136E9E79B070ED5B9F1000F0CBF302571
:107AB0002025A642EAD2013C29465046FFF7C2FFE4
:107AC000002CF6D1E1E72025F3E7B8FBF5F39F4260
:107AD000E2D9DFF83C90B8FBF5F3504619F80310F3
:107AE00005FB1388FFF7AEFFB5FBF7F5002DF2D1CC
:107AF000BBF1000F0AD03CB9BDE8F88F013C202152
:107B00005046FFF79FFF0CB1A642F7D3BDE8F88FB0
:107B1000362A05002DE9F74F054617460C46002981
:107B200000F0358114F8011B49B92B7B002B00F0C4
:107B30002E81284603B0BDE8F04FFFF769BF252925
:107B400040F0218123460026194611F8012B2D2AE9
:107B500024D0302A26D02B2A27D000242A2A99463E
:107B600003F1010124D13B681A1D3A601B68894664
:107B70001C4499F800302E2B25D109F101014FF05A
:107B80000008894611F8012BA2F1300009281CD801
:107B90000A2303FB0823A3F13008F2E746F00106AD
:107BA0000B46D1E746F00206FAE746F00406F7E78F
:107BB0001A780B46A2F130010929DAD80A2101FB13
:107BC0000424303CCAE74FF0000899F8001001F097
:107BD000FB02682A02D119F8011FF8E769290FD0C2
:107BE0004BD8582965D007D825296ED009F1010452
:107BF0002378002B96D198E7632962D06429F5D1C8
:107C00003A68111D3960D2F800A08AEAEA72A2EB44
:107C1000EA724FF0010B092A5BDCC34538BFC3464B
:107C20002CB1BAF1000F01DB710700D5013CB2079E
:107C300002D5B8F1000F04D0F30702D4002C4ED1C6
:107C40000024BAF1000F52DACAF1000A2D212846A9
:107C5000FFF7F8FE06F00302022A05D1B8F1000F83
:107C600002D1002C47D100248DE8500043460A225F
:107C700051462846FFF7F6FEB8E773294CD014D8D2
:107C80007029B3D13B681A1D3A60302128461C6820
:107C9000FFF7D8FE78212846FFF7D4FE0023019392
:107CA0000823009310222146E3E775292BD0782979
:107CB0009CD139680A1D3A6043468DE85000102275
:107CC00028E03B681A1D3A6019782846FFF7BAFE8B
:107CD0008CE70A230BF1010B92FBF3F29BE7A34520
:107CE000AFD220212846013CFFF7ACFEA6E7700783
:107CF000B0D52B21ABE7A345B6D230212846013CB5
:107D0000FFF7A0FEADE739680A1D3A608DE8500024
:107D100043460A220968ACE73B681A1D3A60F1073E
:107D2000D3F800A012D55646A6EB0A0B16F8011B95
:107D300041B95C457FF65AAF20212846013CFFF748
:107D400081FEF6E72846FFF77DFEEDE7BAF1000F6A
:107D500011D0504629F016FE0646B44200D964B947
:107D60000AF1FF3A1AF8011F00293FF43FAF2846F5
:107D7000FFF768FEF6E75646EFE720212846013C6C
:107D8000FFF760FEE9E72846FFF75CFE30E703B047
:107D9000BDE8F08F07B50B46A0B9154B5B886BB1FA
:107DA000144B1548154AC01A0E23C0080093144BF3
:107DB0000004144940F00100FEF7D6FE0E2003B087
:107DC0005DF804FB6BB90A4B5B88002BF6D0094BBE
:107DD00009480D4AC01AC0080E2300930004084B3E
:107DE000E7E703601B68114603B05DF804EB184732
:107DF000D82E0020945B0500FC5B0500F32A0500EB
:107E0000462A0500F82A05006F2B05002DE9F743E7
:107E1000DDF828C0B0B9534B5B88002B00F095808B
:107E2000514B5248524AC01AC0080E24514B00947C
:107E30000004514940F00100FEF796FE204603B0D1
:107E4000BDE8F0836AB9474B5B88002B7DD0464B79
:107E500046484A4AC01AC0080E2400040094454B04
:107E6000E7E7D0F800E0BEF1000F0DD13D4B5B8895
:107E7000002B6CD03C4B3D48414AC01AC008082436
:107E8000000400943B4BD4E76BB9364B5B88002B66
:107E90005FD0354B35483B4AC01AC008092400045E
:107EA0000094344BC5E74768D7F80490B3FBF9F763
:107EB00009FB17376FB12B4B5B88002B49D02A4B3E
:107EC0002A48314AC01AC008092400040094294BEA
:107ED000AFE78F070DD0234B5B88002B3FD0224BA1
:107EE00022482A4AC01AC008102400040094214BDA
:107EF0009FE712F0030F0DD01A4B5B88002B2ED09A
:107F0000194B1A48224AC01AC008102400040094D1
:107F1000184B8EE7C768B9421DD34C1E05691C4437
:107F2000AC4218D8CDF828C0DEF80C40A44603B007
:107F3000BDE8F04360470C4B0C48164AC01AC00815
:107F40001024000400940B4B73E70E2476E70824FA
:107F500074E7092472E7034B5B88002BEBD11024F4
:107F60006CE700BFD82E0020945B0500FC5B050089
:107F7000F32A0500582A0500F82A0500752B05008C
:107F8000692B0500282B05007B2B0500A52B050080
:107F9000BD2B0500E02B0500F7B5A0B9384B5B8879
:107FA000002B60D0374B3848384AC01AC0080E241E
:107FB000374B00940004374940F00100FEF7D4FD30
:107FC000204603B0F0BDD0F800E0BEF1000F0DD1A7
:107FD0002B4B5B88002B48D02A4B2B482E4AC01ACB
:107FE000C008082400040094294BE4E76AB9244B34
:107FF0005B88002B3BD0234B2348284AC01AC0087B
:10800000092400040094224BD5E74768D7F800C044
:108010000CF1FF370F420CD0194B5B886BB3194B37
:1080200019481F4AC01AC008102400040094184BB5
:10803000C1E7C768B9421CD34C1E05690CFB02445A
:10804000AC4216D8DEF81040A44603B0BDE8F040BC
:1080500060470C4B0C48134AC01AC0081024000497
:1080600000940B4BA7E70E24AAE70824A8E70924ED
:10807000A6E7034B5B88002BEBD11024A0E700BFE1
:10808000D82E0020945B0500FC5B0500F32A050058
:108090006B2A0500F82A0500692B0500282B05002E
:1080A0007E2A0500A42A050029DF704728DF7047D3
:1080B00070B50568AB6886B004460E4673B11822E9
:1080C0000021684629F01EF9A368059323790196DB
:1080D00033B1012B0ED0AB686846984706B070BD2F
:1080E00001238DF8003023690293E36803936369E9
:1080F0000493F0E702238DF80030E3681B0302933A
:10810000F5E708467047002070470000024B187AD8
:10811000003018BF0120704724370020034B187A25
:108120000122B0FA80F05A744009704724370020C9
:1081300008B510461A4629F0C0F8002008BD000016
:1081400008B514220021044829F0DCF80348FFF7A1
:10815000F4FA002008BD00BF24370020B42A002014
:1081600010B5094C094B43602046FFF7F3FB40B9BB
:1081700005F05CF81C2320748C2205490548FFF7A4
:10818000C9FA002010BD00BF24370020142C0500C0
:1081900098360020B42A002070B5244D244E2B7A46
:1081A0002C463BB923492448FFF723FB306008B92C
:1081B000686070BD0223237233681A7972B1012A94
:1081C00024D018460321FFF773FF00232372636056
:1081D00018491948BDE87040FFF736BB98695A69DD
:1081E000D9681D69121AB2F5805F28BF4FF480521A
:1081F0009208012A014438BF01222844FFF754FFA6
:1082000050B11128DDD10123237270BDD8681A69DD
:108210001044FFF74BFFF3E7237C2BB90146BDE881
:108220007040022000F00AB870BD00BF2437002063
:108230003C37002038370020B42A002038B5831E90
:10824000012B45D8234C237A002B41D0022B09D196
:10825000032830D0204B00221B68E2601A793AB123
:10826000012A22D0637C7BBBBDE83840FFF794BF76
:108270009A6959698D1AB5F5805F94BF521902F554
:1082800080529A619142EDD102284FF0000308BF5D
:1082900019462372104B18BF0D211868FFF708FF0D
:1082A0000E490F48FFF7D0FADCE71A6901321A616C
:1082B0005B699A42E7E7E3680133082B01D8E36082
:1082C000D0E70023E360DFE7BDE8384004F09EBF5D
:1082D00038BD00BF243700203C370020383700204D
:1082E000B42A002000F0FD03012B08D1044B00222A
:1082F0005A74421E504250411874FFF74DBF7047E8
:108300002437002010B5064C201DFFF723FB28B9A9
:10831000637C1BB9BDE81040FFF73EBF10BD00BF36
:10832000243700202DE9F34180460D460F4801A96E
:1083300016461F46FFF723FA0446A8B11C22002167
:1083400028F0E0FF2D0B0123237101A9C4F8008060
:10835000A760E56066610548FFF73BFAFFF7D2FFCB
:10836000002002B0BDE8F0810420FAE7B42A002022
:108370002DE9F74381468846104801A917461E4655
:10838000FFF7FDF90446B8B11C22002128F0BAFF1E
:1083900000250A9BA36001A92571C4F80090C4F8C8
:1083A0001080E76066610548FFF713FAFFF7AAFF40
:1083B000284603B0BDE8F0830420FAE7B42A002081
:1083C0002DE9F047B0F806804479D2F800909DF886
:1083D000207008FB04F4043C03EB090E744538BF1D
:1083E000A4EB03090E46191DC2F80090B1FBF8F585
:1083F000044608FB15114DB9A8EB010ACA4528BF70
:10840000CA46B9F1000F04D1BDE8F0872468013DE8
:10841000F1E704317019631852466FB11946A9EBA0
:108420000A0928F04AFFC84555442468C2464FF05F
:10843000000128BFCA46E4E701461846EFE7FFF708
:1084400092BAF8B546790446721E00239342246816
:1084500004D301460025B54202D3F8BD0133F5E748
:108460000F682046FFF7BBFA01353946F3E72DE9DF
:10847000F843CD1C878A8046FFF78CFA043F3D44C1
:108480000446B5FBF7F5002650B10123EDB20671A5
:108490004371C780013DC0F800808146AE4202D3DF
:1084A0002046BDE8F8834046FFF774FA074648B116
:1084B0006379013363710136C9F80000C0F80080A8
:1084C0008146EBE72046FFF7BCFF3846BDE8F8835E
:1084D00001210430FFF724BA10B50121044604300D
:1084E000FFF72BFA10F0FF0F04D12046BDE8104033
:1084F000FFF7A7BF10BD1FB504AC44F8042D002240
:1085000000922246FFF75CFF04B010BD1FB504AC1B
:1085100044F8042D012200922246FFF751FF04B0D7
:1085200010BD026813685268934291BFD01A8068E8
:108530000130801888BFC01A70472DE9F8430368DE
:108540001D685C68A54284BF83680133174688466E
:1085500094BF641B5C1BC2684168BC42064602FBB8
:1085600005110CD37A43404628F0A7FEB46833685F
:108570003D44A54288BF00251D60BDE8F88302FB8D
:1085800004F94A46404628F098FEF26871683C1BA0
:10859000624308EB090028F090FE33681C60BDE8D8
:1085A000F883036881681A685B688B4234BF0133C3
:1085B0000023D31A584258417047F7B5044602A821
:1085C000002300F8013D0D46FFF76AF82046FFF74B
:1085D000E8FF10B1237C002B3DD12168A6684B68D1
:1085E0004A68B24234BF013200224A6038B1216881
:1085F000A0680A68824234BF013200220A60E26841
:108600006068511E072920D8DFE801F004101F140C
:108610001F1F1F182A78C2542046FFF782FF2368C5
:108620009A68904200D99860002415E02A8820F8C2
:108630001320F1E72A6840F82320EDE7D5E9006729
:1086400000EBC300C0E90067E6E7294602FB030030
:1086500028F033FEE0E704249DF80700FFF744F814
:10866000204603B0F0BDF7B506460F461446002578
:108670009AB102A800F8015DFFF712F83046FFF743
:1086800050FF84420CD8224639463046FFF755FF4A
:108690002C469DF80700FFF727F8204603B0F0BDF1
:1086A0000524F6E737B5054602A8002400F8014D79
:1086B000FEF7F6FF0C222146286828F023FE9DF8DD
:1086C0000700FFF711F803B030BD13B5044602A848
:1086D000002300F8013DFEF7E3FF2046FFF721FFEE
:1086E00004469DF80700FEF7FFFF204602B010BDCC
:1086F0008268002393608268136182685361826894
:10870000D3608268536082681360704701600B68B1
:1087100043604A68934204BF002343607047436844
:1087200043B1026891680B4443605268934204BFAE
:1087300000234360704700000D4930B5A1F59472E5
:108740000225914201D8002030BD8B1ADB1093FB2B
:10875000F5F302EBC30452F83330834205D802D25A
:1087600004F10802EDE7606830BD2146E9E700BF8B
:108770008C2D050008B5FFF7DFFF024B002808BF6E
:10878000184608BD4E2C05000D4930B5A1F50E72F6
:108790000225914201D8002030BD8B1ADB1093FBDB
:1087A000F5F302EBC30452F83330834205DC02DAFE
:1087B00004F10802EDE7606830BD2146E9E700BF3B
:1087C000D438050008B5FFF7DFFF024B002808BFCB
:1087D000184608BD3A31050041DF704746DF704753
:1087E000082807D80123834040F2F112134201D038
:1087F00028F052B8704708B500F082FA00F07EF811
:10880000002000F03BFD10B100F0CEF8FCE708BD01
:10881000704708B500F0C8F8FCE762B6704772B65A
:10882000704713B502AC002304F8053D01939DF891
:108830000330032B08D904210DEB010000F07CFD6F
:1088400030B9019802B010BD204600F063FDEEE79C
:108850000020F7E708B50EF061FF4FF4705358435E
:1088600008BD30B50D468DB01446A2B199B190B196
:1088700001461022684628F020FD102229460DEB03
:10888000020028F01AFD6846FFF7A8FF102208A989
:10889000204628F012FD0DB030BD00F071BAEFF3A4
:1088A0000580003018BF01207047000037B54FF039
:1088B0008053094D1C6E596E00220A4304F0FF03D9
:1088C000002422432B4302A961E90223082228F055
:1088D000F4FC03B030BD00BF000E010BFFF77CBFFE
:1088E00008B507F0A3FA437B33B1FDF795FF18B93C
:1088F000BDE80840FFF770BF08BD000008B50BF0E9
:10890000F9FB48B9054B1B7813B9054B1B781BB114
:10891000BDE808400BF0F4BB08BD00BF012C0020EF
:10892000042C00202DE9F84307460E460BF0E2FB2D
:1089300058B1184B184CDFF86890DFF86880E41ADB
:10894000E408240444F003040EB9BDE8F883D9F820
:108950000000C0F10805B542A8BF35462A46394691
:10896000404428F0AAFCD9F800202A44082AC9F873
:1089700000202F44A6EB0506E6D1084B5B88022BAE
:1089800003D941462046FEF709F90023C9F8003013
:10899000DAE700BF945B05002C5C0500F02E002098
:1089A000483700204037002010B50C4C226882B1B7
:1089B0000B4B5B88022B0AD90A4B0B480B49C01A98
:1089C000C008000492B240F00300FEF7E7F800236D
:1089D0002360BDE81040FDF71FBF00BF48370020EF
:1089E000F02E0020945B05002C5C05004037002031
:1089F0004FF0102358694FF08053411C1A695B698E
:108A000008BF03FB02F070470378022B01D80BF07C
:108A100085BB704710B5FFF7EBFF0A4C2061FFF7ED
:108A2000E7FF094B0949A0F54040E06000222046DD
:108A3000C3F80821FFF7AEF918B1BDE81040FFF701
:108A4000E8BE10BD902E00204C370020202C0500E1
:108A50004FF4804070470220704708B513460A461D
:108A600031B143B10146184628F027FC002008BD6B
:108A70006FF00A0008BD6FF00B0008BD0128F8B5C3
:108A800007460C4616461D4612D80B44B3F5804FD8
:108A900011D29AB1ADB1FFF7ABFFA4F5404101EBA4
:108AA000873101442A46304628F007FC0020F8BDF3
:108AB0006FF03800F8BD6FF01600F8BD6FF00B00D6
:108AC000F8BD6FF00C00F8BD0128F7B507460C465D
:108AD00016461D4626D80B44B3F5804F25D23AB32F
:108AE000AB0828D0FFF784FFA4F5404404EB87349B
:108AF00004440BF01BFB07460028FAD10BF006FBE1
:108B0000214600972B4632460C48FFF77FF9044672
:108B10000BF00CFB0028FBD1201C18BF01204042A9
:108B200003B0F0BD6FF03800FAE76FF01600F7E71A
:108B30006FF00B00F4E76FF00C00F1E7902E0020CF
:108B400001282DE9F041064626D8FFF751FF00EB3A
:108B50008630A0F54044DFF8508004F580470BF0E4
:108B6000E5FA05460028FAD10BF0D0FA2B4601228F
:108B700021464046FFF710FA90B90BF0D7FA0546A8
:108B80000028FAD104F58054BC42E8D130460BF0FD
:108B9000D5FA2846BDE8F0816FF03800BDE8F081D5
:108BA0004FF0FF30BDE8F081902E002010B5084C4A
:108BB000D4F8083153B19BB22246D4F8041194F88A
:108BC0000001FFF781FF0023C4F8083110BD00BF8A
:108BD0004C3700202DE9F8431C4C1E46D4F80831D0
:108BE00081460F46904693B194F80021824207D106
:108BF000D4F804211A44914202D1B3F5807F06D102
:108C0000FFF7D4FF03E0FFF7D1FF2F44A844D4F8C7
:108C1000080118B984F80091C4F80471C0F5807592
:108C2000B54234BFADB235464DB12A464146204427
:108C300028F043FBD4F808312B44C4F80831761BE4
:108C4000B6B2002EDFD13046BDE8F8834C370020A5
:108C500007B50C4B18680090FFF7CAFE0422A0F578
:108C600080410DEB020028F028FB042269460DEB41
:108C7000020028F013FBB0FA80F0400903B05DF861
:108C800004FB00BFDA38050070B506460D461446F1
:108C9000FFF7AEFEA4F57F543C3C32462946204403
:108CA000BDE87040FFF7D9BE00487047E0380500C6
:108CB0000422032102708170002206214270C170DB
:108CC000426070477047B0F5A27F01D10BF038BA0F
:108CD0007047000008B5FFF7E7FF00F0BBFFFFF7A4
:108CE000E3FF00F0C3FF024B00221A7008BD00BF73
:108CF0006C380020014B1878704700BF6C3800209A
:108D00001FB502A8FFF7D4FFFFF7CEFF104A02A954
:108D100000F01EFF08B1FFF77CFDFFF7C5FF0368F9
:108D2000D3F81045FFF7C0FFE2B24FF470310124D1
:108D300021FA02F202232146009400F0E6FFFFF739
:108D4000B3FF00F079FF034B1C7004B010BD00BFEF
:108D5000C78C02006C38002008B5084B1B780BB993
:108D6000FFF7CEFFFFF7A0FF00F0A8FF28B9FFF73D
:108D70009BFFBDE8084000F05FBF08BD6C380020D5
:108D8000F8B5044680B3FFF7A5FF00F0A3FA194831
:108D9000194A0378D35C4BB3043001F011FC27F07F
:108DA0001BFB002706464FF47A751448144B83606A
:108DB00039466C434460C760066027F019FB26F013
:108DC00065FBFFF78BFD26F04FFB27F005FB841BAF
:108DD000FFF7C2FF384600F051FA08B1FFF719FD5E
:108DE000FDF77CFBB4FBF5F42046F8BD0C3001F038
:108DF000ABF9D4E7982A00205450002058380020BE
:108E0000C58C0200074B1B5C1F2B8ABF064A4FF024
:108E1000A04203F01F03D2F80405D840C04300F07D
:108E200001007047EC38050000030050074B1B5C45
:108E30001F2B86BF03F01F0305494FF0A0410122FD
:108E400002FA03F3C1F80C35704700BFEC38050097
:108E500000030050074B1B5C1F2B86BF03F01F0352
:108E600005494FF0A041012202FA03F3C1F8083589
:108E7000704700BFEC3805000003005008B5002023
:108E8000FFF7E8FF0120FFF7E5FF0220FFF7E2FF11
:108E90000320BDE80840FFF7DDBF08B50020FFF75D
:108EA000C5FF0120FFF7C2FF0220FFF7BFFF03202D
:108EB000BDE80840FFF7BABF0A4B185C1F288ABFFD
:108EC000094B4FF0A04300F01F00D3F80425012107
:108ED000814021EA02000A40C3F80805C3F80C25C6
:108EE000704700BFEC38050000030050074B1B5CC7
:108EF0001F2B8ABF064A4FF0A04203F01F03D2F88F
:108F00001005D840C04300F001007047E838050064
:108F1000000300500B2809D00C2809D0182809D0CC
:108F200019280CBF03204FF0FF3070470020704716
:108F30000120704702207047C20770B5044614D55F
:108F4000154D164E00220320535D1F2B86BF03F0E4
:108F50001F0331464FF0A04103F5E0730132042AAC
:108F600041F82300F0D1FFF789FFA30712D50C4C7D
:108F70000A4D00220C20135D1F2B86BF03F01F0338
:108F800029464FF0A04103F5E0730132042A41F86D
:108F90002300F0D170BD00BFEC3805000003005085
:108FA000E838050042DF704743DF704738B5084CAA
:108FB00004F108030546002818BF1C4623682BB19E
:108FC0001A6822605B6828469847F7E738BD00BFFB
:108FD0007838002020B9054B01225A70FFF7E6BF10
:108FE000012802D1014A9070F8E7704770380020DC
:108FF00020B9034B01225A70FFF7D8BF704700BF5A
:109000007038002038B50B4C237883B90A48636068
:10901000A3602361E36000F03DFA054604F006F921
:1090200008B900F045FA01232370284638BD85258C
:10903000FBE700BF70380020D58F020037B5184C11
:10904000A378054603F0FF029BB110B143680120ED
:10905000984700230DF107008DF80730FEF720FB3D
:10906000E3689DF807000133E360FEF73DFB03B0C2
:1090700030BD0DF107008DF80720FEF711FB25B17B
:10908000226913463BB92A602561E368002BE7D1CA
:1090900000F022FAE4E79D42F7D01B68F2E700BF38
:1090A0007038002037B502A80023094C00F8013DB4
:1090B000FEF7F6FAE368013BE360E56815B900F0F6
:1090C00019FAA5709DF80700FEF70EFB03B030BD3E
:1090D00070380020012813B509D003D303281BD012
:1090E00002B010BD0F4B0122C3F88020F8E702A8A0
:1090F00000230D4C00F8013DFEF7D2FA23780BB99E
:10910000FFF780FFE3689DF807000133E360012368
:10911000A370FEF7E9FAE3E700F0CAF9FFF7C2FF30
:10912000DEE700BF00E100E07038002037B51B4CDF
:109130006378054603F0FF029BB110B1436800203D
:10914000984700230DF107008DF80730FEF7A8FAC5
:1091500063689DF8070001336360FEF7C5FA03B04A
:1091600030BD0DF107008DF80720FEF799FA25B103
:10917000A268134653B92A60A5606368002BE7D143
:1091800004F054F830B1FFF70DFFE1E79D42F4D051
:109190001B68EFE700F0BAF9DAE700BF703800208B
:1091A00073B502A800230D4C00F8013DFEF778FAD4
:1091B0006368013B6360666836B904F037F80546BA
:1091C00040B1FFF7F1FE66709DF80700FEF78CFADC
:1091D00002B070BD00F0A6F96570F5E770380020A8
:1091E00030DF704731DF70471FB58DF8070004A8E6
:1091F000002300F8013DFEF753FA04F017F850B9C8
:109200000DF107010748FFF7D8F90648FFF7C9F93C
:1092100008B100F069FC9DF80F00FEF765FA05B093
:109220005DF804FB345B050007B520B103280BD0C3
:1092300003B05DF804FB0F4B1B78012BF8D100F055
:1092400053FC00F059FCF3E702A8002300F8013DAD
:10925000FEF726FA07480378012B05D106490130AD
:1092600000F000FC00F02EFC9DF80700FEF73CFA31
:10927000DEE700BFD4380020E991020013B5124C9C
:109280002378F3B9114A002808BF10460288A4F8D1
:10929000012002A800F8013DFEF702FA03F0C6FF24
:1092A00030B90B49601C00F0DDFB40B900F00AFC4E
:1092B00001239DF807002370FEF716FA002002B084
:1092C00010BD8520FBE700BFD4380020F63805002C
:1092D000E991020007B502A8002300F8013DFEF75E
:1092E000DFF903F0A3FF18B900F0FEFB00F004FC67
:1092F0009DF80700FEF7F8F90448FFF7D3F9044B8F
:1093000000221A7003B05DF804FB00BF345B050057
:10931000D438002010B5044603F088FF20B9054872
:10932000FFF7D3F9207010BD2046FFF759FF002842
:10933000F5D110BD345B05002DE9F7430024DFF8BB
:10934000589005460E46A0460DF107008DF807809F
:10935000FEF7A6F903F06AFF074638B932462946F8
:109360004846FFF780F9044600F0ACFB9DF8070083
:10937000FEF7BAF947B131462846FFF733FF42F20C
:1093800007039842044605D0022CDDD0204603B0E6
:10939000BDE8F0830524F9E7345B05001FB50378C9
:1093A0008DF8003043680193037A8DF80830C36864
:1093B0000393054A054B684653F8213052F82110B3
:1093C000984705B05DF804FBD8380020E03800204D
:1093D0001FB503788DF800304368019383688DF8DA
:1093E0000830C3680393054A054B684653F821309B
:1093F00052F82110984705B05DF804FBD8380020DA
:10940000E0380020F0B5194B0778DFF870C043F85A
:109410002720174B96460A6943F827204B7F0CF804
:1094200007300C4606460FCC89B06D460FC594E850
:109430000F0085E80F00337804971CF8033053B110
:10944000BEF1000F0B4A694608BF0022301D00F034
:10945000C1FF09B0F0BDBEF1000F074A694608BF61
:10946000002206F10C0000F081FDF2E7E038002058
:10947000D83800209D930200D19302005450002060
:1094800000F180400023036082B003680193019BD8
:1094900002B07047054A13792BB901211060117190
:1094A0005371184670478520704700BFE838002088
:1094B000084B1A68D20706D4C02283F80023012281
:1094C000C3F880211A604FF080430122C3F81825A9
:1094D000704700BF00E100E008B54FF48270FFF76D
:1094E000CFFF4FF080430222C3F8042301229A6089
:1094F00008BD0000044B01221A604FF08042D2F8F0
:109500001834DB03FBD470470C00004008B54FF45F
:109510008070FFF7B5FF4FF080430122C3F80423AA
:109520001A6008BD074B01221A604FF08042D2F842
:109530000C3403F00113B3F1011FF8D0024B0022E9
:109540005A71704704000040E838002010B5124BF3
:109550001B6873B14FF48070FFF792FF4FF08043A8
:109560000122C3F808230D4B587910B95A711B68B2
:1095700098470B4B1B6873B14FF48270FFF780FF65
:109580004FF080430222C3F80823044B01201B68DC
:10959000BDE81040184710BD00010040E838002029
:1095A0000401004000F1804000F5C040002382B07B
:1095B000036003680193019B02B0704703681F2B8F
:1095C00083BF03F01F03036001484FF0A0407047C2
:1095D0000003005007B502AB43F8040D1846FFF72F
:1095E000EDFF019B00EB8300D0F8003723F44033FC
:1095F000C0F80037D0F8003743EA0141C0F800173F
:1096000003B05DF804FB0000054B4FF0FF32072864
:1096100043F8202084BF1B1883F85820704700BFF0
:10962000F038002010B5174C94F86A3043BBFF2186
:10963000E2180133302B82F83010F9D10021C8B282
:10964000FFF7E2FF01310C29F9D1002106220E4873
:1096500027F058FE0D4BC02283F806234022C3F8A2
:1096600080214FF4BE701A60FFF79CFF084B4FF04B
:109670000042C3F80423012384F86A30002010BD9F
:10968000082010BDF03800205439002000E100E02F
:1096900000600040034B93F86A00003018BF0120BF
:1096A000704700BFF0380020F7B53C4C2318064641
:1096B00093F93030002B6FDA8878C0F3400000282F
:1096C0000BBF082300230C250825AB4202D1042040
:1096D00003B0F0BD54F82370013745D1A7195DB22E
:1096E00087F8305044F8232010B9234483F8586099
:1096F0008B785A0718D4D80738D502A840F8086DD7
:10970000FFF75CFF009B00EB8300D0F8003723F0ED
:109710000203C0F800372248F20806F007070123C9
:10972000BB40875C3B43835488780A7810F0020082
:1097300029D0AB0003F1804303F5C0433602D3F8D0
:10974000101521F44F3121F44071C3F810151204A3
:10975000D3F8101506F47C5602F4403216430E433B
:10976000C3F810650020B3E70133AEE702A84A78DA
:1097700040F8046DFFF722FF019B03F5E0739200B0
:1097800040F82320C7E7083D2C4494F8606046EA7F
:10979000821284F860209BE7082099E7F0380020C7
:1097A0005439002073B5224C2518064695F930200F
:1097B000072A1ADD224492F858309B09032B10D156
:1097C00002A840F8046DFFF7F9FE019AD0F81035B1
:1097D000D340DB0707D402213046FFF7FBFE02B07F
:1097E00070BD012BF7D00321F6E7D3B2072BF6D8D3
:1097F000930003F1804303F5C043D3F8100540F014
:109800000100C3F8100502F14000800080B2FFF7AC
:10981000C9FE0029E3D095F9303054F82330002BED
:10982000DDD0012303FA02F2024BC3F80423D6E78A
:10983000F03800200060004007B502AB43F8040D8B
:109840001846FFF7BBFE019BD0F81005D84000F08A
:10985000010003B05DF804FB2DE9F04F89B000244E
:10986000614A624E624D029403940121A2F5C04008
:1098700052F8043B012B80B206D1D6F804330B42D8
:1098800002D0FFF78FFE0C43AA424FEA4101EDD10F
:10989000584B1B68012B0ED14FF4BE70FFF782FEB0
:1098A0004FF0A04344F00044D3F810350293524BDC
:1098B000D3F81035039314F0FF0F34D1002C80F24D
:1098C0008F8004AE0023049373604C4F4FF0FF333E
:1098D000069307934FF00108002425467B1993F95E
:1098E0006020531C63D0D2B222F0C00908AB4FEA0B
:1098F000D90003EB000B02F007011BF8083C08FA43
:1099000001F10B4253D007EB0903920993F9303070
:1099100057F823A0BAF1000F21D1032A47D1335CB5
:109920000B4333541DE0354F01260025344210D03F
:10993000AB0003F1804303F5C043D3F81005D3F81F
:10994000101557F8253023B1C1F30141C0F30520AC
:1099500098470135082D4FEA4606E7D1AEE7032ABE
:10996000DDD001A8CDF80490FFF728FE019B03F598
:10997000E07350F823301BF8180C0842C3F301437E
:1099800005D0022B13D1032A0BD1114604E0032B7F
:109990000DD1032A05D102214846FFF71BFE0134F1
:1099A000E4B2BAF1000F02D011464846D047013563
:1099B000042D93D1A4B14FF0A0430299D3F8102500
:1099C00003F540739142D3F8103502D103999942BF
:1099D00006D002920393049A059B069207937BE7B5
:1099E00009B0BDE8F08F00BF00610040006000409A
:1099F000206100407C61004000030050F0380020EE
:109A0000014B1B68184700BF5C3900200D4B984282
:109A100037B50D4610D102A8002300F8013DFDF72F
:109A20003FFE094B1C7914B901221D601A719DF883
:109A30000700FDF759FE14B9002003B030BD112016
:109A4000FBE700BF002000405C390020034B984238
:109A500001BF034B00221A601A71704700200040BA
:109A60005C39002010B5134C22780ABB124B1960E8
:109A7000037813F0010F114B1EBFD3F8042542F0F9
:109A80000102C3F80425D3F8002222F00102C3F832
:109A9000002243780A4A5B01DBB282F80D334FF4AF
:109AA0000053C2F88031136001232370002010BDE1
:109AB000852010BD683900206439002000D00040A6
:109AC00000E100E0064B00221A6082B01B6801939F
:109AD000019B044B0122C3F804231A6002B07047B3
:109AE00000D1004000D00040024A0123C2F80833F0
:109AF0005360704700D00040064A0123C2F8083383
:109B00005360054B4FF40052C3F88020034B0022F2
:109B10001A70704700D0004000E100E06839002072
:109B200007B5084B00221A601B680193019B064B86
:109B3000D3F80805054BC0B21B68984703B05DF821
:109B400004FB00BF00D1004000D000406439002079
:109B5000F7B50579364C0C266E43A7193B7A002BD6
:109B600063D1A2514A687A601A461F464379D6B239
:109B7000B34202F1010203684FD81A0B56B2CB78F8
:109B8000002E4FEA4313AFBF06F1604202F00F020E
:109B9000284EDBB2A9BF02F56142B354DBB282F8B2
:109BA000003303681B0B03F01F0643F3C40323F0C9
:109BB000604323F0030303F1604303F56143012293
:109BC00002FA06F6C3F880611E6007684B78D7F882
:109BD000046503F0030326F003063343C7F8043596
:109BE00007688B78D7F8086503F0030326F00306AF
:109BF0003343C7F8083506680B78D6F8100503F02C
:109C00000F0320F00F010B43C6F810350C2303FBA4
:109C100005440020227203B0F0BDB60006F5A07620
:109C20009F519B590193019BA0E70820F3E700BFD8
:109C30006C39002014ED00E0036801221A600379FA
:109C4000034A0C2101FB032302221A72704700BF52
:109C50006C3900200368044901221A6103790C2041
:109C600000FB03131A7270476C39002038B5036883
:109C70001B0B5AB20121520903F01F0301FA03F32F
:109C800020320C4941F8223003680025D3F8002225
:109C9000C3F8005203684FF0FF320446C3F80823AC
:109CA000FFF7D8FF2379044A0C2101FB03231D721F
:109CB00038BD00BF00E100E06C3900200379044AA0
:109CC0000C2101FB0323187A831E58425841704728
:109CD0006C39002073B54FF480348C4005688BB12B
:109CE0008B0003F5A0730026EE50EB580193019B07
:109CF0000368C3F80443036801F5A87143F8212001
:109D000002B070BDC5F80843F5E7F0B507689DF8E7
:109D100014E0D7F8004240F201158D4024EA050412
:109D2000C7F800420568D5F800422343C5F8003261
:109D30007346BDE8F040FFF7CDBF00002DE9F341C9
:109D4000104C114F114E00254FF48038236804F554
:109D5000C04080B26BB1D7F8043308FA05F21A425A
:109D600007D00023236023680193019B7168336847
:109D700098470135062D04F10404E7D102B0BDE88F
:109D8000F08100BF40A1014000A001406C390020DB
:109D90000023435082B043580193019B02B07047A7
:109DA0000A4610B54FF48E71FFF7F2FF136A9168FF
:109DB000C95C136A01331362C0F81C1510BD10B5DD
:109DC0008B690A464FF4847123B9FFF7E1FFD0F89D
:109DD000183510BDFFF7DCFF536AD168D0F81805BD
:109DE000C854536A0133536210BD00001FB50123EC
:109DF0008DF80030044B02900191684693E806000C
:109E0000904705B05DF804FB7839002030B54D4A25
:109E1000D2F8043313F4007F85B015464FD0D2F842
:109E20002431002B4BD04FF492711046FFF7B0FF56
:109E30004FF40173C2F80833434B93F8291009B962
:109E4000012151603F4902228DF80020D1F8802481
:109E5000C1F8802403929A690292DA680192002282
:109E60009A61DA61684693E8060090473548D0F871
:109E70001C315BB134490A6A4B699A420A464CD29A
:109E800091F82830002B48D1FFF78AFF2D4AD2F8ED
:109E9000443193B14FF4A2711046FFF779FF2A4B7A
:109EA00093F8291009B1012111609A692AB10022A1
:109EB0009A61586AD968FFF799FF05B030BDD5F8A7
:109EC00004335B07D2D5D5F80831002BCED01E4C19
:109ED0001C482146FFF773FF636AA2699A42234632
:109EE000C4D1E26952B12369E168E3600023606A8A
:109EF000A261E3616362FFF779FFB7E794F8292075
:109F00000AB901226A600F4A4FF40171C2F80813BE
:109F100000229A61586AD968EDE74FF48E710948BA
:109F2000FFF736FF51690029B0D0002302919168F4
:109F30008DF8003001915361684692E80A00984715
:109F4000A4E700BF00200040783900201F2886BF0A
:109F500000F01F00044B4FF0A04300F5E070022218
:109F600043F82020704700BF000300502DE9F8435C
:109F7000704B067991462C2202FB0632054692F878
:109F80002A200C469846002A40F0D0806A49006892
:109F9000FFF73CFD0746002840F0CA8023685A1CA2
:109FA00019D01F2B4FF001028ABF64494FF0A04126
:109FB00003F01F0302FA03F3C1F8083523681F2BCF
:109FC00086BF03F01F035D4A4FF0A04203F5E07324
:109FD000032142F823106368581C0BD01F2B86BF47
:109FE00003F01F03554A4FF0A04203F5E073002130
:109FF00042F823102B68A269C3F82425217D637DD4
:10A000002A680B43C2F86C3594E806002B68C3F845
:10A010001425C3F80C15237D012B32D1A368591CDC
:10A020000BD01F2B86BF03F01F03444A4FF0A04202
:10A0300003F5E073002142F82310E3685A1C19D09D
:10A040001F2B4FF001028ABF3C494FF0A04103F0A3
:10A050001F0302FA03F3C1F80835E3681F2B86BF1C
:10A0600003F01F03354A4FF0A04203F5E0730321CC
:10A0700042F823102B68E268A168C3F80825C3F8EA
:10A0800010152C23734308EB0302C2F804902269D5
:10A0900048F80320B9F1000F35D04FF48E712868CD
:10A0A000227FFFF775FE4FF4A2712868FFF770FE5C
:10A0B0002B682349C3F804132868000B41B2002918
:10A0C0004FEA4213B7BF00F00F0001F160421D4A92
:10A0D000DBB2A9BF02F561421354DBB282F8003350
:10A0E0002B681B0B03F01F0143F3C40323F06043F1
:10A0F00023F0030303F1604303F5614301228A4027
:10A10000C3F880211A602B680422C3F800252C2391
:10A1100003FB068300229A61DA6183F829205A61E1
:10A12000012283F82A203846BDE8F8830827FAE799
:10A130001127F8E7783900200D9E02000003005037
:10A140008000020014ED00E02DE9F041036804797D
:10A15000274D0022C3F800252C2303FB045301469E
:10A160005B6883B10368234AC3F8082303681B0BA9
:10A170005AB20120520903F01F0300FA03F3203200
:10A180001D4840F822300B684FF0FF32D3F80C0521
:10A19000D3F81485D3F80865D3F81075C3F81425DF
:10A1A000C3F80C250B689042C3F80825C3F81025A6
:10A1B00001D0FFF7CBFEB8F1FF3F02D04046FFF7DA
:10A1C000C5FE7A1C02D03846FFF7C0FE731C02D0D1
:10A1D0003046FFF7BBFE0868FFF738FC2C2303FB73
:10A1E0000454002384F82A306360BDE8F08100BF86
:10A1F000783900208402020000E100E02DE9F843F4
:10A20000234B07794FF02C0909FB07340646656993
:10A210009846002D35D16261A160256284F82850EE
:10A220004FF48E710068FFF7B3FD336801229A6026
:10A2300021463068FFF7B4FD6368A14623BB35684B
:10A24000226A63699A4211D33368D3F81C21002A29
:10A25000FBD00122DA6000202C2303FB07870023B8
:10A260007B61BDE8F88394F8283043B9D5F81C31F8
:10A27000002BF8D049462846FFF792FDE0E70F2073
:10A28000EAE71120BDE8F8832846BDE8F88300BF5F
:10A29000783900200023435082B043580193019B3A
:10A2A00002B070471FB501238DF80030054B8DF8C3
:10A2B00008000191684693E80600904705B05DF8F4
:10A2C00004FB00BFA43900207FB5384AD2F82461CE
:10A2D000002E49D010464FF49271FFF7DBFF0223A6
:10A2E0008DF80030D2F88034C2F880340393D2F86D
:10A2F0003C358DF808302E4BDA68019200229A61C5
:10A30000DA61684693E806009047284AD2F844315B
:10A3100073B14FF4A2711046FFF7BCFF244B99694B
:10A3200031B100219961D2F83C05D968FFF7BAFF35
:10A330001E4AD2F82031ABB14FF490711046FFF7AE
:10A34000A9FF1B4B596969B1D2F84C158DF808105B
:10A35000002299688DF8002001915A61684693E8BF
:10A360000600904704B070BDD2F81031002BCCD05D
:10A370004FF488711046FFF78DFF0D4BD2F83C0566
:10A3800099698842C1D1DC696CB1D2F80052D968B0
:10A3900025F02005C2F800521A699C61DA60DE617E
:10A3A000FFF780FFB1E79C61D968F9E70020004022
:10A3B000A43900201F2886BF00F01F00044B4FF077
:10A3C000A04300F5E070022243F82020704700BF50
:10A3D000000300502DE9F843744B0679914624227E
:10A3E00002FB0632054692F820200C469846002AC9
:10A3F00040F0D8806E490068FFF708FB0746002848
:10A4000040F0D28023685A1C19D01F2B4FF0010254
:10A410008ABF68494FF0A04103F01F0302FA03F31B
:10A42000C1F8083523681F2B86BF03F01F03614A5C
:10A430004FF0A04203F5E073032142F82310636854
:10A44000581C0BD01F2B86BF03F01F03594A4FF037
:10A45000A04203F5E073002142F823102B68A269A3
:10A46000C3F82425217D637D2A680B43C2F86C352F
:10A470002B6822686168C3F80C25C3F81415237D86
:10A48000012B32D1A368591C0BD01F2B86BF03F0C0
:10A490001F03484A4FF0A04203F5E073002142F841
:10A4A0002310E3685A1C19D01F2B4FF001028ABFFA
:10A4B00040494FF0A04103F01F0302FA03F3C1F833
:10A4C0000835E3681F2B86BF03F01F03394A4FF09E
:10A4D000A04203F5E073032142F823102B68E268E1
:10A4E000A168C3F80825C3F810152423734308EBAB
:10A4F0000302C2F80490226948F80320B9F1000F62
:10A500003FD04FF488712868227FFFF7C3FE4FF4D5
:10A5100090712868FFF7BEFE4FF492712868FFF72C
:10A52000B9FE4FF4A2712868FFF7B4FE2B682249E8
:10A53000C3F804132868000B41B200294FEA421304
:10A54000B7BF00F00F0001F160421C4ADBB2A9BFA7
:10A5500002F561421354DBB282F800332B681B0B07
:10A5600003F01F0143F3C40323F0604323F003030C
:10A5700003F1604303F5614301228A40C3F880215F
:10A580001A602B680822C3F80025242303FB0683E6
:10A5900000229A61DA615A61012283F8202038464C
:10A5A000BDE8F8830827FAE71127F8E7A439002067
:10A5B000C9A20200000300501003020014ED00E0E5
:10A5C0002DE9F04103680479274D0022C3F80025E6
:10A5D000242303FB045301465B6883B10368234AC9
:10A5E000C3F8082303681B0B5AB20120520903F079
:10A5F0001F0300FA03F320321D4840F822300B6895
:10A600004FF0FF32D3F80C05D3F81485D3F8086562
:10A61000D3F81075C3F80C25C3F814250B689042C5
:10A62000C3F80825C3F8102501D0FFF7C3FEB8F121
:10A63000FF3F02D04046FFF7BDFE7A1C02D03846ED
:10A64000FFF7B8FE731C02D03046FFF7B3FE086870
:10A65000FFF7FCF9242303FB0454002384F8203083
:10A660006360BDE8F08100BFA43900201003020040
:10A6700000E100E001F06043B3F1005F2DE9F0413B
:10A68000064635D11F4B0779242505FB073598462B
:10A690006C69002C2FD16A61A96000684FF4907139
:10A6A000FFF7F8FD4FF4AC713068FFF7F3FD336846
:10A6B0006A69A968C3F84415C3F8482533680122BC
:10A6C0009A606B68D3B93268D2F82011D2F8583149
:10A6D00049B9002BF8D00F20242303FB0787002360
:10A6E0007B61BDE8F081002B14BF0F200020F3E751
:10A6F0001020BDE8F0811120BDE8F0812046BDE8C2
:10A70000F08100BFA43900200220FEF7D5BB000075
:10A7100008B5094B1B7853B10020FEF79BFB0120C5
:10A72000FEF798FB0320BDE80840FEF793BBBDE8A9
:10A730000840FEF7A3BB00BFC9390020F8B5784C2C
:10A74000237805461BB100232370FFF7E1FF172D87
:10A7500000F28780DFE805F00C1717435464757F1B
:10A76000878C878C949898989898C2C6CDD4DEDE52
:10A77000FFF7CEFF6B48FCF783FF6B4B00220446CC
:10A780001A702046F8BD0020FEF73CFBF8B100200F
:10A79000FEF760FB022D0CBF4FF4E1614FF47A61CC
:10A7A000614B1D704FF400404FF4FA740025E0FB3C
:10A7B00001454FF47A7200232046294627F0FAFE1D
:10A7C000002201465748BDE8F840FCF713BFFEF7EA
:10A7D0002DFB022D0CBFC8214FF4C871E0E700200B
:10A7E000FEF710FB40B10020FEF734FB4FF4487138
:10A7F00003224D4B1A70D5E7FEF718FBC821F7E787
:10A800000020FEF7FFFA30B10020FEF723FB4FF4E3
:10A810007A610422EDE7FEF709FB4FF4C871F8E70F
:10A820000020FEF7EFFA48B10020FEF713FB3E4B85
:10A8300005221A7041F69A110022C3E7FEF7F6FAD4
:10A84000F5E70020FEF738FB374B06221A7000228E
:10A8500040F6CD41B6E70020FEF7E8FA0722324B7A
:10A860001A7000248DE701202070FEF725FBEEE72B
:10A8700001202070FEF720FB00224FF48041A1E769
:10A88000FEF70BFB0C22EAE72848294EFCF7F8FEFE
:10A89000D5F1110504461CD0D8B9012D13D0C82319
:10A8A0005D434FF4FA7000214FF400474FF47A7281
:10A8B0000023C7FB050127F07DFE224601461B4809
:10A8C000FCF798FE04460220FEF7B0FA012333702D
:10A8D00057E70220FEF7BEFA0023F8E7FFF718FF5C
:10A8E0001222BCE7FFF714FF0020FEF79FFA1322A5
:10A8F000B5E7FFF70DFF0120FEF798FA1422AEE747
:10A90000FFF706FF0020FEF791FA0120FEF78EFA0E
:10A910001522A4E7FEF7C1FA034B1D70A1E700BFA3
:10A920003C3A00200C3A0020443A0020CC39002068
:10A93000C93900202DE9F04781460D46FEF7EAFAB5
:10A940000328044631D8012D04D022D3022D2ED065
:10A95000BDE8F087194D47003A18A918AE5C4A784F
:10A9600052B1DFF86880164842464FF40041FCF7C8
:10A9700041FE08B988F800903B192B449A78114B96
:10A980001A5596B1104B1B687BB13046BDE8F047B5
:10A9900018470B48FCF774FE084B04EB44021344C1
:10A9A0009E78084B1B5DB342EBD0BDE8F087034BAC
:10A9B00000EB40041C446678E3E700BF2C3A00201B
:10A9C000EC390020453A0020403A0020C8390020E8
:10A9D00002210078FFF7AEBF044B1B68DB0703D5ED
:10A9E000034B1878FFF7AABE704700BF383A002023
:10A9F000443A0020032801D8FEF778BA00207047B7
:10AA0000044B1B6813F0010301D0FFF797BE1846F3
:10AA1000704700BF383A002038B51C4B18601C4BFB
:10AA200010F00204054619601AD01A4B1A480E227B
:10AA30001A700F22DA7010229A7111225A720421B0
:10AA400040F26662FCF714FB044648B9FCF762FB6F
:10AA5000044628B90146114A1148FCF7B9FD0446DD
:10AA6000EB0711D50120FEF767FA6CB921460D4AB4
:10AA70000D48FCF7ADFD044630B90C4A0C480121E5
:10AA8000BDE83840FCF7A4BD204638BD383A002068
:10AA9000403A00202C3A002030390500D1A90200AC
:10AAA00054390500D9A902005839050009A7020048
:10AAB0005039050076DF70477ADF70477CDF7047DA
:10AAC0007FDF70478FDF7047B1DF7047FCF738BB1F
:10AAD000F7B50446002860D0434D6B88022B09D996
:10AAE000424B43484349C01AC008000440F00300E9
:10AAF000FCF722F8822221463F480CF0DFF946425B
:10AB00000746F6B16B889BB13046FDF75BFE384CCB
:10AB1000364B3A49E41AE40840F203332404019323
:10AB2000374B00933246034644F00100FCF728F807
:10AB3000FBF772FE0028FBD1C7F59C402030FCF7E4
:10AB4000FFFA40F2451200212E480CF0B7F94642B8
:10AB50000746002E45D06B889BB13046FDF732FE8C
:10AB6000234C224B2549E41AE40840F2053324041F
:10AB70000193234B00933246034644F00100FBF758
:10AB8000FFFFFBF749FE0028FBD1C7F59C402030B2
:10AB900003B0BDE8F040FCF7D3BA1A4808F021FE34
:10ABA00045420646EDB1104B5B889BB12846FDF748
:10ABB00009FE0F4C0D4B1149E41AE40840F20A3328
:10ABC000240401930E4B00932A46034644F00100EF
:10ABD000FBF7D6FFFBF720FE0028FBD1C6F59C4013
:10ABE000D5E703B0F0BD00BFC02E0020945B050088
:10ABF000CC5B0500AF39050009AC0200C93905007E
:10AC0000E0390500D1AA020010B54FF438720021D6
:10AC1000044609F00BF80C2108F09AFE4FF0FF32C1
:10AC20004270C270042202710122427102228271BA
:10AC30000622027208228272074A00236FF0020184
:10AC400001708170C3714372C372538020460349FF
:10AC5000BDE8104014F041BF984B002061AC0200E9
:10AC6000F7B54FF42F720021054608F0DFFF0146CB
:10AC70000646002008F0FDFF04461321304608F088
:10AC800011FF6378002B43D12379002B40D0274953
:10AC90004B88002B3CD16379254CB0F801200B7018
:10ACA0004A806188022909D922492348401AC008EC
:10ACB0000004224940F00300FBF74CFF0022FF2173
:10ACC0001F480CF0CBFA46420746F6B163889BB1A9
:10ACD0003046FDF777FD184C164B1A49E41AE40884
:10ACE00040F2CE2324040193174B009332460346CF
:10ACF00044F00100FBF744FFFBF78EFD0028FBD179
:10AD0000C7F59C402030FCF71BFA0320FEF78EF8B5
:10AD100055B140F2D5220021284608F087FF03B044
:10AD2000BDE8F04008F062BD03B0F0BD984B0020D4
:10AD3000C02E0020945B0500CC5B05009439050013
:10AD4000D1AA0200C9390500E039050030B540F24A
:10AD5000272287B0002108F069FF154B5B88022B82
:10AD6000054609D9134B14481449C01AC0080004F9
:10AD700040F00300FBF7E0FE00242246009402238B
:10AD8000112128460DF0A2FB062303934FF4827392
:10AD900002930B4A04940123019312F8023B00939F
:10ADA0000146022328460DF043FA07B030BD00BF2C
:10ADB000C02E0020945B0500CC5B05006B3A0500BB
:10ADC000984B002070B540F255220C4686B0002109
:10ADD00008F02CFF194B5B88B4FA84F5022B064669
:10ADE0004FEA55150AD9164B16481749C01AC0081C
:10ADF0000004224640F00300FBF7A2FE0024224696
:10AE000000940223112130460DF060FB0F234370A4
:10AE10000822022305708370C47003924FF482727B
:10AE2000029201220192094A049412F8021B009135
:10AE3000011D30460DF0FCF906B070BDC02E00209B
:10AE4000945B0500CC5B05004F3A0500984B002051
:10AE500070B54FF402720C4686B0002108F0E6FE91
:10AE6000164B5B88261C18BF0126022B05460AD903
:10AE7000134B14481449C01AC0080004224640F07D
:10AE80000300FBF75DFE00243346224600941121A7
:10AE900028460DF01BFB062303934FF482730293A5
:10AEA0000A4A04940123019312F8023B00930146DD
:10AEB000022328460DF0BCF906B070BDC02E00205C
:10AEC000945B0500CC5B0500373A0500984B0020E9
:10AED000F7B55F4E05460CF021FCB2685D4B841A55
:10AEE0009C4288BF141A412CB5FA85F7284694BFB6
:10AEF000002401247F09FFF77DFD68BB44BB3B466E
:10AF000001222146544808F0FFFB45420746FDB1A7
:10AF1000524B5B889BB12846FDF754FC504C514B7B
:10AF20005149E41AE40840F23533240401934F4BAD
:10AF300000932A46034644F00100FBF721FEFBF78D
:10AF40006BFC0028FBD1C7F59C402030FCF7F8F8DB
:10AF50000023337103B0F0BD002C54D03B460122D6
:10AF60000021434808F0D0FB46420746FEB13B4B68
:10AF70005B889BB13046FDF725FC394C394B3A498B
:10AF8000E41AE40840F2413324040193374B009360
:10AF90003246034644F00100FBF7F2FDFBF73CFCB0
:10AFA0000028FBD1C7F59C402030FCF7C9F82946A2
:10AFB000132230480BF082FF45420646002DC9D0CF
:10AFC000264B5B889BB12846FDF7FCFB244C254BA8
:10AFD0002549E41AE40840F2433324040193234B47
:10AFE00000932A46034644F00100FBF7C9FDFBF736
:10AFF00013FC0028FBD1C6F59C40203003B0BDE80F
:10B00000F040FCF79DB8294603221A480BF056FF82
:10B0100045420646002D9DD0104B5B889BB12846CB
:10B02000FDF7D0FB0E4C0F4B0F49E41AE40840F239
:10B030004933240401930D4B00932A46034644F000
:10B040000100FBF79DFDFBF7E7FB0028FBD1D2E7F2
:10B05000984B0020FEFFFF7F51AE0200C02E002063
:10B06000CC5B0500945B0500C9390500E03905009B
:10B07000C5AD0200D1AE020013B50388212B0446F2
:10B0800041D01ED8112B27D0132B4AD0102B16D10C
:10B090002C4B5B88022B09D92B4B2C482C49C01A0E
:10B0A000C008000440F00300FBF746FD0720FFF74F
:10B0B000A7FC08B1FCF744F8A288264B1A8002B01E
:10B0C00010BD522B35D0562B01D03B2BF7D113217D
:10B0D000A088FFF7EFFC1FE01A4B5B88022B09D911
:10B0E000194B1A481C49C01AC008000440F003005C
:10B0F000FBF722FD0020FDF7ADFE0120FDF7AAFEC3
:10B100004FF6FF72D9E7002301A980888DF804303B
:10B110008DF80530FFF7D6FC0028D0D0FCF710F8EA
:10B12000CDE70C4800231A4685210088FFF7C8FCAC
:10B13000F2E7084800231A4619460088FFF7C4FCC6
:10B14000EAE700BFC02E0020945B0500CC5B050041
:10B150005C390500BE2B0020663905000E4B4A887D
:10B160001B889A4216D10A8840F677239A4211D159
:10B170000A4B5B88022B0DD9094A0A488B880A4979
:10B18000801A033BC0089BB200041A4640F003003B
:10B19000FBF7E0BC704700BFBE2B0020C02E002094
:10B1A000945B0500CC5B0500F039050008B5037819
:10B1B0004BB9054B3B211888FFF77CFC18B1BDE863
:10B1C0000840FBF7BDBF08BDBE2B002073B5054688
:10B1D000D8B140F27B22002108F028FD0B2108F0B5
:10B1E00061FC0B220021044626F08CF804F01EFEC0
:10B1F00003882381A37A00216FF3C7132846A37223
:10B2000002B0BDE8704015F099BA154808F0E9FAA7
:10B210004542064615B3134B5B889BB12846FDF7A4
:10B22000D1FA114C114B1249E41AE40840F2892377
:10B23000240401930F4B00932A46034644F0010077
:10B24000FBF79EFCFBF7E8FA0028FBD1C6F59C4013
:10B25000203002B0BDE87040FBF772BF02B070BD95
:10B26000CDB10200C02E0020CC5B0500945B050030
:10B27000C9390500E039050013B5184C628862B180
:10B28000174B1848184A1949C01AC008000440F260
:10B29000992340F00100FBF75DFC63889BB101201E
:10B2A000FDF790FA0F4C0E4B1149E41AE40840F2F6
:10B2B00099232404019301220B4B0093034644EA93
:10B2C0000200FBF75DFCFBF7A7FA0028FBD144F670
:10B2D000216002B0BDE81040FBF732BFC02E002055
:10B2E000945B0500CC5B0500E03905000C3A0500D5
:10B2F000C939050008B5084808F073FA50B10022B2
:10B3000040F6CD410548FCF775F918B1BDE8084095
:10B31000FBF716BF08BD00BF4DAD0200BC4B0020BF
:10B3200073B5294C63880246002B4BD00E2847D0BA
:10B330000F2834D101252379002B43D10123237118
:10B340000CF0ECF92946A060032220480BF0B6FD72
:10B3500045420646002D35D01D4B5B889BB12846E3
:10B36000FDF730FA1B4C1C4B1C49E41AE40840F270
:10B370007333240401931A4B00932A46034644F086
:10B380000100FBF7FDFBFBF747FA0028FBD1C6F5F0
:10B390009C40203002B0BDE87040FBF7D1BE0C4BA2
:10B3A0005B88022B0ED90C480A4B0E491B1ADB088E
:10B3B0001B0443F0030002B0BDE87040FBF7C0BBC4
:10B3C0000025B8E702B070BD984B0020D1AE020056
:10B3D000C02E0020CC5B0500945B0500C939050038
:10B3E000E03905007339050008B548B103280CD1D0
:10B3F0000220FFF705FB40B1BDE80840FBF7A0BE07
:10B400000321024800F0AEFEF5E708BD3C490020EC
:10B410002DE9F0410778002F40F0B8805C4B5B8845
:10B42000002B00F0B3800469868A5A4826F0AAFAF5
:10B4300021460246574826F0ADFA014630B90123AD
:10B440001A465548BDE8F04108F05EB9534826F069
:10B4500099FA21460246514826F09CFA034610B953
:10B4600001220146EDE74E4826F08CFA21460246BD
:10B470004B4826F08FFA20B94A48BDE8F04108F061
:10B48000B0B9494826F07EFA21460246464826F0E1
:10B4900081FA014618B901231A464448D2E74448C4
:10B4A00026F070FA21460246414826F073FA034618
:10B4B00010B901220146F0E7032E3E4D0BD8394664
:10B4C0000A22204626F0F8FA074670B9012E02D16A
:10B4D0002378302B29D06B88022B16D9364B37486E
:10B4E0003749C01AC00800040BE0B0F57A7F1CD3BE
:10B4F0006B88022B09D9304B30483249C01AC0083A
:10B50000000440F00300FBF717FB6B88022B3DD9CA
:10B51000294B2A48C01AC00800043246214640F090
:10B520000300BDE8F041FBF739BB2748FCF7A8F85A
:10B5300008B1FBF705FE6B88022B0AD91E4B1F488A
:10B540002249C01AC00800043A4640F00300FBF745
:10B55000F7FA4FF4FA7000214FF0FA744FF47A7250
:10B560000023C4FB070127F025F80428014604D86E
:10B570000020BDE8F041FFF7BDBE00221248FCF7F5
:10B5800039F818B1BDE8F041FBF7DABDBDE8F0814C
:10B59000984B00202A2B050051AE02007D59050072
:10B5A000D64805004DAD0200732B0500C5AD020065
:10B5B00092390500C02E0020945B0500CC5B05008D
:10B5C000C13A0500E53A0500BC4B0020053B0500EB
:10B5D00010B5044611F00EFF20B12046BDE8104022
:10B5E000FFF7F4BD022002F003FB012801D0FFF7B2
:10B5F00043FE4CB120464FF42C72002108F016FB9C
:10B60000BDE8104008F0F2B810BD000008B50849C8
:10B61000084801F021FA08B1FBF792FDF72105482F
:10B6200001F02EFA18B1BDE80840FBF789BD08BD4E
:10B630005DB10200A44B0020F0B585B004A900253F
:10B6400041F8045D044612F0ADF940F20A420646A4
:10B650002946204608F0EAFA062EB0F9042017D849
:10B66000052E8B4D2CD2032E00F0D280884B5B88A8
:10B67000022B40F2C280874B87488849C01AC00815
:10B680000004134640F003003246FBF763FAB4E0CF
:10B69000132E00F0E980142EE8D1002A00F0AD80CE
:10B6A0007B4B5B88012B40F2A8807A4B7A487C491F
:10B6B000C01AC008000440F00200FBF73DFA9CE00D
:10B6C0006B88002A64D1022B09D9724B72487549E4
:10B6D000C01AC008000440F00300FBF72DFA022056
:10B6E000FDF7A4FB704B5B88002B40F08680822224
:10B6F00021466E480BF0E2FB46420746F6B16B88E6
:10B700009BB13046FDF75EF8634C624B6849E41A22
:10B71000E40840F21A4324040193664B0093324636
:10B72000034644F00100FBF72BFAFBF775F80028FD
:10B73000FBD1C7F59C402030FBF702FD40F24512DB
:10B7400000215D480BF0BAFB46420746F6B16B8814
:10B750009BB13046FDF736F84F4C4E4B5449E41A36
:10B76000E40840F21C4324040193524B00933246F8
:10B77000034644F00100FBF703FAFBF74DF80028FD
:10B78000FBD1C7F59C402030FBF7DAFC05B0F0BDDB
:10B790004BB1404B40484949C01AC008000440F032
:10B7A0000100FBF7CDF90220FDF754FB41220021F7
:10B7B00043480BF083FB46420746F6B16B889BB1CA
:10B7C0003046FCF7FFFF344D324B3949ED1AED0896
:10B7D00040F225432D040193364B00933246034635
:10B7E00045F00100FBF7CCF9FBF716F80028FBD178
:10B7F000C7F59C402030FBF7A3FC002CC6D040F2DC
:10B800004D420021204608F011FA07F0EFFFBDE796
:10B81000E2B90220FDF71EFB6B88039E022B0AD9BA
:10B820001C4B1D4832792749C01AC008000440F05B
:10B830000300FBF785F93379002BDED1022002F0FB
:10B84000D7F90128D9D0FFF717FDD6E76B88002B71
:10B85000D3D0104B10481C49C01AC008000440F057
:10B860000100FBF76DF9C8E7094B5B88022B0BD988
:10B87000084B09481549C01AC008039B00045A68C0
:10B8800040F00300FBF75CF90BF0D8FEB5E700BF12
:10B89000C02E0020945B0500CC5B0500D93B050061
:10B8A000AD3B0500183B0500984B002009AC020099
:10B8B000C9390500E0390500D1AA0200343B050072
:10B8C000D1B50200573B0500743B0500983B0500CD
:10B8D00070B54FF40041AEB00020FAF7E9FE08B1B0
:10B8E000FBF72EFCFAF7FEFDFBF740FE08B1FBF775
:10B8F00027FC8A4A8A480021FBF76AFE08B1FBF759
:10B900001FFC88490320FFF787F808B1FBF718FCF4
:10B91000FDF7B4FA01F00EFC08B1FBF711FC2EACF8
:10B92000002344F8AC3D0120214601F0CFFC08B1D2
:10B93000FBF706FC204601F0AFFD08B1FBF700FC69
:10B940009DF808307848012262F303032EAD62F3BC
:10B95000071305F8B03D26F015F8734982B2284662
:10B96000FFF7ACF808B1FBF7EBFB082200212046FB
:10B9700025F0C8FCA023ADF80C30F023ADF80E3054
:10B980000023ADF8103020464FF4C873ADF81230E4
:10B99000FFF792F808B1FBF7D3FBFFF737FE002162
:10B9A0000422204625F0AEFC604B614803932146FB
:10B9B00001F0E8FA08B1FBF7C3FBAC2200212046F6
:10B9C00025F0A0FC02238DF80C3000238DF80E30FA
:10B9D00005238DF80F300123ADF858308DF88830ED
:10B9E0004FF4A073259344F25063524A26932146A4
:10B9F000514B524817922C9300F03DFB08B1FBF7D6
:10BA00009FFB01214D4800F033FB1C220021204602
:10BA100025F078FC4FF4203304934FF47023059302
:10BA200003238DF81830464B08930025454B0395AA
:10BA30002046ADF81A508DF81C50099300F0DAFD3D
:10BA400008B1FBF77DFB404B1D70404B1D80404B08
:10BA50001D7008F047FA08F047FA2046FCF726FF69
:10BA600020460BF0DDFE4FF480300BF0FFFE00208F
:10BA70000BF0DEFE06200AF0FFFEC3200AF002FFF4
:10BA80000220FEF7B7FF80F00100C0B20BF0BCFE51
:10BA9000304C31480C22002125F034FC2F4801F0B5
:10BAA0006DFE6288022A09D92D4B2E482E49C01AF4
:10BAB000C008000440F00300FBF73EF803211F48D4
:10BAC00000F050FB08B1FBF73BFB0BF0D2FE454208
:10BAD0000646F5B163889BB12846FCF773FE214CFE
